:100000000EC01DC01CC01BC01AC019C018C017C02C
:1000100016C015C014C013C012C011C010C01124E6
:100020001FBECFE5D1E0DEBFCDBF21E0A0E6B0E04E
:1000300001C01D92A435B207E1F724D009C1E0CF79
:100040008FE087BB8CE188BB089527E030E061E05A
:1000500070E0482F50E0CB01022E02C0880F991F9C
:100060000A94E2F784239523892B11F092E001C0D2
:1000700090E0892F8C6188BB9D6198BB215031092C
:1000800050F70895CF93DF93CDB7DEB727970FB61C
:10009000F894DEBF0FBECDBFD3DF6AE0362E222438
:1000A000239447E1642E41E0742E5EE9852E50E0F2
:1000B000952E80E690E09F838E83AAEDB0E0BA8310
:1000C000A983BD019401F3013192D9011D929D01D3
:1000D000DC011D92CD01DB012D92BD01B1E0E335C4
:1000E000FB0791F7E0E6F0E03382349620E0EC394C
:1000F000F207D1F741E04093160180E0A6DF80E0EF
:10010000A4DF80E0A2DF80E0A0DF8BED482E80E05E
:10011000582E97E1E92E91E0F92E2EE9C22E20E02B
:10012000D22E30E6A32E30E0B32E8201D8018D917D
:100130008D01882389F0F501F081FB83D601BC9104
:10014000BC83F701F081FD8382EE7FDF8B817DDF51
:100150008C817BDF8D8107C082EE77DF80E075DFE9
:1001600080E073DF80E071DF2FEFA21AB20A4FEF59
:10017000C41AD40A8FEFE81AF80A91E00731190778
:10018000A9F68FEF62DF8FEF60DF8FEF5EDF8FEF1B
:100190005CDF40E650E08EE990E0E7E1F1E01192AB
:1001A000DC013D92CD01DA011D92AD01A981BA8138
:1001B0002D92BA83A983B1E0E335FB0781F7E0E62E
:1001C000F0E0338234968CE990E08E179F07C9F7F0
:1001D00091E09093160180E038DF80E036DF80E028
:1001E00034DF80E032DFD2018D912D01882379F058
:1001F000EE81FF81F080D4010C91F301108182EE39
:1002000024DF8F2D22DF802F20DF812F07C082EE99
:100210001CDF80E01ADF80E018DF80E016DF8E81CF
:100220009F8101969F838E839FEF891A990AAFEF72
:100230006A1A7A0AB7E14B16B1E05B06A1F68FEFB6
:1002400004DF8FEF02DF8FEF00DF8FEFFEDE29CFBD
:04025000F894FFCF50
:00000001FF
