:100000000EC01DC01CC01BC01AC019C018C017C02C
:1000100016C015C014C013C012C011C010C01124E6
:100020001FBECFE5D1E0DEBFCDBF21E0A0E6B0E04E
:1000300001C01D92A430B207E1F774D0BBC0E0CF7D
:100040008FE087BB8CE188BB089527E030E061E05A
:1000500070E0482F50E0CB01022E02C0880F991F9C
:100060000A94E2F784239523892B11F092E001C0D2
:1000700090E0892F8C6188BB9D6198BB215031092C
:1000800050F708959F92AF92BF92CF92DF92EF9276
:10009000FF920F931F93CF93DF93082F80E0D5DF5C
:1000A00080E0D3DF80E0D1DF80E0CFDF10E010130D
:1000B00002C0C0E01FC0C0E6D0E08AE8C82E80E0E1
:1000C000D82E9BEDE92E90E0F92E9990F601A190A3
:1000D0006F01F701B1907F0182EEB7DF892DB5DFA7
:1000E0008A2DB3DF8B2DB1DFF0E0C838DF0769F769
:1000F0001F5FDDCFC01751F08FEFA7DF8FEFA5DFB8
:100100008FEFA3DF8FEFA1DFCF5FF4CFDF91CF9130
:100110001F910F91FF90EF90DF90CF90BF90AF9025
:100120009F9008958DDFCAE0D1E00BED10E08AE8E2
:10013000A82E80E0B82E90E6C92E90E0D92E22EBB2
:10014000E22E20E0F22EB701C6019501F801C1931D
:10015000D9011D929D01DC011D92CD01DB01DD93D2
:10016000BD01B1E0E330FB0791F7E0E6F0E0C383C7
:10017000349640E0E838F407D1F784E083DFEBED14
:10018000F0E01192D501CD935D01D6011D926D0174
:10019000D701DD937D01B1E0E330FB0791F7F80172
:1001A000C3830C5F1F4FF1E003301F07C1F784E0EA
:0801B00069DFBBCFF894FFCF1B
:00000001FF
