:100000001AC034C0E5C032C031C030C02FC02EC0CD
:100010002DC02CC02BC02AC029C028C027C09CC21C
:1000200063C2E5C202C21FC277C2E1C2E0C2DFC240
:10003000DEC2B2C239C211241FBECFE5D2E0DEBF9C
:10004000CDBF10E0A0E6B0E0E4E9F4E102C0059025
:100050000D92AA38B107D9F720E0AAE8B0E001C0B4
:100060001D92AE3EB207E1F797D912CAC9CF8FE011
:1000700087BB8CE188BB089527E030E061E070E049
:10008000482F50E0CB01022E02C0880F991F0A941E
:10009000E2F784239523892B11F092E001C090E0D0
:1000A000892F8C6188BB9D6198BB2150310950F725
:1000B00008958091D000873118F081E08093D000BE
:1000C0008091B800823118F081E08093B800E6EDAD
:1000D000F0E0A8EAB0E081E09081973108F08083F9
:1000E0009C91923108F08C933196119690E0E53E08
:1000F000F90791F78091D200803110F01092D20070
:100100008091D2009091D100981710F08093D10087
:100110008091CF00823010F01092CF00089586E2D7
:1001200090E097D98093D00085E290E092D98093B7
:10013000B8004FE050E064E170E086ED90E079D9DE
:100140004FE050E064E070E088EA90E072D982E02D
:1001500090E07FD98093D10083E090E07AD98093BA
:10016000D20081E090E075D98093CF0080E090E0EC
:1001700070D98093A3009DCF6091D00086E290E07B
:1001800079D96091B80085E290E074D94FE050E0F1
:1001900064E170E086ED90E064D94FE050E064E007
:1001A00070E088EA90E05DD96091D10082E090E053
:1001B00061D96091D20083E090E05CD96091CF007A
:1001C00081E090E057D96091A30080E090E052C9AF
:1001D0001F920F920FB60F9211242F933F934F93BC
:1001E0005F936F937F938F939F93AF93BF93EF939F
:1001F000FF93F8945EDF3BDF96B385E194FD10C07A
:1002000096B3EFE9FFE03197F1F700C000008150AD
:10021000A9F781E08093B90084E18093D50008C0FC
:100220008FE097E20197F1F700C000001092B9004B
:10023000FF91EF91BF91AF919F918F917F916F91BE
:100240005F914F913F912F910F900FBE0F901F9094
:100250001895813526E4920760F08FE08093D500F1
:10026000672B11F080E008951092D1001092D20017
:1002700013C0813127E2920790F08AE08093D50085
:10028000672B81F78091CF00811106C081E08093B8
:10029000CF008093D10024C01092CF0021C0893BB1
:1002A0002BE09207F8F08091CF008111DBCF809195
:1002B000D2008F30B8F69BE09093D500672B91F673
:1002C0008F5F8093D20090E0FC01EA52FF4F2091B3
:1002D000D0002083FC01E855FF4F2091B800208317
:1002E000E8DE21C08D3D25E0920748F08EE0809346
:1002F000D500672B09F0B6CF1092B90014C08D3B22
:1003000022E09207A0F085E18093D500672B09F0E9
:10031000A9CF8091A3008F5F843018F48093A3004D
:1003200002C01092A30028DF1092D50037C0853696
:10033000910598F08091CF00811194CF8DE080934A
:10034000D500672B09F08ECF8091B8008F5F823186
:1003500008F081E08093B800E6CF0F9708F482CFD1
:10036000672B09F07FCF8091CF00811109C0809168
:10037000D0008F5F873108F081E08093D0000CC0FF
:100380008091D1008F5F8093D1009091D200981717
:1003900018F481E08093D1008CDEEEDE81E00895D8
:1003A000B49B03C01092950003C081E08093950038
:1003B00060919500613049F4809193009091940090
:1003C000019690939400809393008091920068131B
:1003D00007C070E080919300909194003ADF01C0D3
:1003E00080E090919500911108C020919200211118
:1003F00004C010929400109293009093920008957C
:10040000CF93C82F80E038DE80E036DE80E034DE37
:1004100080E032DE8C2F90E0FC013A97EC30F10561
:1004200008F0E5C0E15FFF4F09948FEF25DE8AE019
:1004300023DE80E021DE80E01FDE8FEF1DDE8AE01C
:100440001BDE80E019DE80E017DE8FEF15DE8AE02C
:1004500013DE80E011DE80E00FDE8FEF0DDE8AE03C
:100460000BDE80E03EC08FEF07DE80E005DE87E038
:1004700003DE87E001DE8FEFFFDD80E0FDDD87E05A
:10048000FBDD87E0F9DD8FEFF7DD80E0F5DD87E06C
:10049000F3DD87E0F1DD8FEFEFDD80E0EDDD87E07C
:1004A000EBDD87E0E9DDA3C08FEFE6DD80E0E4DD92
:1004B00080E0E2DD8AE0E0DD8FEFDEDD80E0DCDDA4
:1004C0008AE0DADD80E0D8DD8FEFD6DD80E0D4DDB4
:1004D00080E0D2DD8AE0D0DD8FEFCEDD80E0CCDDC4
:1004E0008AE0CADD80E0DECF8FEFC6DD80E0C4DDCC
:1004F0008AE0C2DD80E0C0DD8FEFBEDD80E0BCDDE4
:100500008AE0BADD80E0B8DD8FEFB6DD80E0B4DDF3
:100510008AE0B2DD80E0DFCF8FEFAEDD84E0ACDDDE
:1005200084E0AADD84E0A8DD8FEFA6DD84E0A4DD11
:1005300084E0A2DD84E0A0DD8FEF9EDD84E09CDD21
:1005400084E09ADD84E098DD8FEF96DD84E094DD31
:1005500084E092DD84E0A6CF8FEF8EDD80E08CDD3D
:1005600080E08ADD8AE088DD8FEF86DD80E084DD53
:1005700080E082DD8AE080DD8FEF7EDD80E07CDD63
:1005800080E07ADD8AE078DD8FEF76DD80E074DD73
:1005900080E072DD8AE086CF8FEF6EDD80E06CDD7B
:1005A00080E06ADD8AE068DD8FEF66DD80E064DD93
:1005B0008AE062DD80E060DD8FEF5EDD80E05CDDA3
:1005C0008AE05ADD80E058DD8FEF56DD8AE054DDA9
:1005D00080E052DD80E050DD2FEF81EE94E021508D
:1005E00080409040E1F700C000001092D500CF910C
:1005F000D7CEEEEBF0E010821182128213821482C9
:100600000895FC01308121E0261720F441814193B7
:100610002F5FFACF860F911DFC013197308308952B
:10062000FC01E60FF11D319720816150FC0139F08A
:10063000E60FF11DDF0111973C913083F6CF208347
:1006400008952F923F924F925F926F927F928F9276
:100650009F92AF92BF92CF92DF92EF92FF920F9351
:100660001F93CF93DF93CDB7DEB727970FB6F894DC
:10067000DEBF0FBECDBF89838091A200813009F417
:1006800000C3562E29812F83912C88248A947724A5
:100690007394B2E06B2E822F90E0BC016E577F4FB7
:1006A0007A836983DC01A658BF4FBC83AB83FC010E
:1006B000EE58FF4FFE83ED83951409F4E1C2FF81EC
:1006C000F830E0F4A981BA814C91EB81FC81308152
:1006D000AD81BE812C91EBECF0E08AEB90E004EA76
:1006E00010E04193DC013D93CD01D8012D938D01A4
:1006F0006FEC70E06E177F07A1F72AC27F81793017
:10070000B1F07C3031F1783069F5EBECF0E08AEB58
:1007100090E044EA50E08192DC018D92CD01DA0153
:100720001D92AD01B0E0EF3CFB07A9F711C2EBEC65
:10073000F0E08AEB90E044EA50E08192DC011D9207
:10074000CD01DA011D92AD01B0E0EF3CFB07A9F746
:10075000FFC11092A7001092A6001092A50010925F
:10076000A400F6C1EF81ED3081F0EE3009F048C011
:1007700080919C0090919D0040919E00EBECF0E0F8
:100780002AEB30E064EA70E01BC0E4EAF0E08AEBB8
:1007900090E04BEC50E01192DC011D92CD01DA01AA
:1007A0001D92AD01B0E0E83AFB07A9F7EFEFE09347
:1007B000CE00E093BC00E093A500E093CB00C8C15D
:1007C0008193D9019D939D01DB014D93BD01B0E063
:1007D000EF3CFB07A9F720918B00211107C09F5F19
:1007E00090939D00815080939C0052C0213009F06D
:1007F000AFC1915090939D008F5F80939C0057C034
:10080000EF81E03109F459C080F4EF3009F0D2C033
:100810008091990040919A0090919B00EBECF0E060
:100820002AEB30E064EA70E01EC0FF81F13109F488
:1008300070C0F23109F0BEC080916000282F30E016
:10084000F901EE57FF4F4081F901E658FF4F9081C3
:10085000F901EE58FF4F5081EBECF0E02AEB30E06D
:1008600004EA10E093C08193D9014D939D01DB010F
:100870009D93BD01B0E0EF3CFB07A9F720918B00F1
:1008800021110CC09F5F90939B0081508093990031
:100890009F3F09F05DC170928B005AC1213009F071
:1008A00057C1915090939B008F5F809399008F3F29
:1008B00009F04EC110928B004BC14091960090916F
:1008C000970080919800EBECF0E02AEB30E064EACE
:1008D00070E04193D9019D939D01DB018D93BD0192
:1008E000B0E0EF3CFB07A9F720918B00211107C076
:1008F0009F5F90939700815080939800C9CF2130DB
:1009000009F026C19150909397008F5F80939800D3
:10091000CECF40919F009091A0008091A100EBEC80
:10092000F0E02AEB30E064EA70E04193D9019D9356
:100930009D01DB018D93BD01B0E0EF3CFB07A9F702
:1009400020918B00211107C09F5F9093A000415020
:1009500040939F009DCF213061F48F5F8093A10071
:1009600091509093A0008F3F09F0F2C060928B00ED
:10097000EFC0223009F09ECF81508093A1004F5FDD
:1009800040939F00882309F495CFE2C04193D90199
:100990009D939D01D8015D938D01B0E0EF3CFB0775
:1009A000A9F78F5F893018F480936000D1C07092EE
:1009B0006000CEC0EF81E431D9F118F4E33149F0A1
:1009C000C7C0FF81F53109F461C0F63109F48CC06C
:1009D000BFC080918A008F5F8C3318F480938A00A7
:1009E0000AC010928A0064E08EE690E00ADE64E0BD
:1009F0008AE690E015DEEEE6F0E04BEC50E02AE609
:100A000030E08AEB90E004EA10E06191DA016D9346
:100A1000AD01D9016D919D01DC016D93CD01D8012E
:100A20001D928D0162E770E06E177F0771F790C02D
:100A300080918A008F5F8C3318F480938A000AC0FB
:100A400010928A0064E08EE690E0DBDD64E08AE6E6
:100A500090E0E6DDEEE6F0E04BEC50E02AEB30E033
:100A60008AE690E004EA10E06191DA016D93AD014D
:100A7000D9011D929D01DC016D91CD01D8016D93CD
:100A80008D01B0E0E237FB0779F762C080918A0000
:100A90008F5F8C3318F480938A000AC010928A000A
:100AA00064E08EE690E0ADDD64E08AE690E0B8DDDB
:100AB000EBECF0E04EE650E02AEB30E08AE690E026
:100AC00004EA10E01192DA016D91AD01D9016D9344
:100AD0009D01DC016D91CD01D8016D938D01B0E0D8
:100AE000EF3CFB0779F734C080918A008F5F8C332D
:100AF00018F480938A000AC010928A0064E08EE69F
:100B000090E07FDD64E08AE690E08ADDE6E6F0E0F2
:100B10006BEC70E04EE650E02AEB30E08AE690E0C5
:100B2000A4EAEA2EA0E0FA2E1191DB011D93BD018B
:100B3000DA011D91AD01D9011D939D01DC011D91CB
:100B4000CD01D7011D937D01B0E0EA36FB0761F7C7
:100B500027DC813019F48093A20093C02091A30078
:100B60008BECE82E80E0F82E9AEBC92E90E0D92E7F
:100B700034EAA32E30E0B32EA501C601F7012130DF
:100B800071F43081369536953083DC013C91369591
:100B900036953C93DA013C913695369525C0223046
:100BA00071F4308132953F703083DC013C91329595
:100BB0003F703C93DA013C9132953F7015C0233071
:100BC000A1F4308132953695369533703083DC014F
:100BD0003C9132953695369533703C93DA013C91D1
:100BE00032953695369533703C93319601964F5F2A
:100BF0005F4FB0E0E03DFB0711F680E03DDA80E0BA
:100C00003BDA80E039DA80E037DA0FEB10E0F80108
:100C100081918F01882371F0D5012C90F6013080ED
:100C2000D7014C908FEF28DA822D26DA832D24DA33
:100C3000842D07C08FEF20DA80E01EDA80E01CDA16
:100C400080E01ADABFEFAB1ABB0AEFEFCE1ADE0A6A
:100C5000FFEFEF1AFF0A23EC30E020173107B9F657
:100C60008FEF0ADA8FEF08DA8FEF06DA8FEF04DA08
:100C70008FEC97E00197F1F700C0000093941CCD32
:100C800080E027960FB6F894DEBF0FBECDBFDF9190
:100C9000CF911F910F91FF90EF90DF90CF90BF9079
:100CA000AF909F908F907F906F905F904F903F900C
:100CB0002F9008951F93CF93DF93D82F162FC42F13
:100CC00098DCC0FF03C081E08093BF00C1FF03C078
:100CD00081E08093C000C2FF03C081E08093C10027
:100CE000C3FF03C081E08093C200612F8D2FDF918D
:100CF000CF911F91A6CC4FEF6AE08091D000DACF60
:100D00004FEF66E08091D000D5DF4FEF66E080E0E6
:100D1000D1CF4FE066E08091D000CCDF40EF66E0BD
:100D20008091D000C7CF41E063E08091D000C2DF66
:100D300042E063E08091D000BDDF44E063E0809159
:100D4000D000B8DF48E063E08091D000B3DF40E13D
:100D500063E08091D000AEDF40E263E08091D0009C
:100D6000A9DF40E463E08091D000A4DF4FEF62E0B0
:100D70008091D0009FCF40E063E080E09BDF48E1BE
:100D800063E08091D00096DF44E263E08091D00080
:100D900091DF46E663E08091D0008CDF49E966E0B0
:100DA0008091D00087DF46E663E08091D00082DF4B
:100DB00044E263E08091D0007DDF48E163E0809110
:100DC000D00078CF4CE36BE08091D00073DF48E136
:100DD00063E08091D0006EDF4EE763E08091D00049
:100DE00069DF47EE63E08091D00064DF43EC69E0A7
:100DF0008091D0005FDF47EE63E08091D0005ADF42
:100E00004EE763E08091D00055DF48E163E08091D8
:100E1000D00050CF42E063E08091D0004BDF41E052
:100E200063E08091D00046DF46E863E08091D00027
:100E300041DF48E463E08091D0003CDF4EE769E0A9
:100E40008091D00037DF44E163E08091D00032DF51
:100E500044E363E08091D0002DDF42E463E08091C1
:100E6000D00028DF41E266E08091D00023DF42E23B
:100E700063E08091D0001EDF42E563E08091D00006
:100E800019DF4CE463E08091D00014DF44E863E0B4
:100E90008091D0000FDF48E463E08091D0000ADF4A
:100EA0004CE863E08091D00005DF42E863E0809188
:100EB000D00000DF42E063E08091D000FBCE40E054
:100EC00063E08091D000F6DE40E663E08091D000E0
:100ED000F1DE4CE763E08091D000ECDE4EE163E0B0
:100EE0008091D000E7DE4FE363E08091D000E2DE46
:100EF0004FEF63E08091D000DDDE4FE363E080914F
:100F0000D000D8DE4EE163E08091D000D3DE4CE724
:100F100063E08091D000CEDE40E663E08091D000B7
:100F2000C9CE40E066E08091D000C4DE40EE66E0CD
:100F30008091D000BFDE44EE63E08091D000BADE45
:100F400048E166E08091D000B5DE47E263E0809141
:100F5000D000B0DE47E066E08091D000ABCE40E04C
:100F600063E08091D000A6DE40E663E08091D0008F
:100F7000A1DE40E863E08091D0009CDE4DE863E0B4
:100F80008091D00097DE40E963E08091D00092DE4E
:100F900040E663E08091D0008DDE40E063E0809128
:100FA000D00088DE4DEF63E08091D00083CE40E03A
:100FB00063E08091D0007EDE40E763E08091D00066
:100FC00079DE48EF63E08091D00074DE4CEF63E09F
:100FD0008091D0006FDE4EE763E08091D0006ADE42
:100FE0004FE063E08091D00065DE4EE763E08091E2
:100FF000D00060DE4CEF63E08091D0005BDE48EF14
:1010000063E08091D00056DE40E763E08091D0003D
:1010100051CE40918D0080916500480F40938D0026
:1010200063E08091D00046DE80918D008F3F19F003
:10103000811103C081E080936500089540E361E081
:101040008091D00037DE49E462E08091D00032DE4A
:1010500046E061E08091D0002DDE40E062E08091CA
:10106000D00028DE40E761E08091D00023DE4CE034
:1010700061E08091D0001EDE43E061E08091D0000D
:1010800019DE4CE061E08091D00014DE40E761E0C1
:101090008091D0000FDE40E062E08091D0000ADE57
:1010A0004FE761E08091D00005DE49E463E0809184
:1010B000D00000DE40E062E08091D000FBDD40E443
:1010C00062E08091D000F6DD4FE761E08091D000D2
:1010D000F1DD40E462E08091D000ECDD40E062E0D0
:1010E0008091D000E7DD4EE361E08091D000E2DD49
:1010F00041E462E08091D000DDDD4EE361E080916B
:10110000D000D8DD40E062E08091D000D3DD4FE731
:1011100061E08091D000CEDD49E462E08091D000B2
:10112000C9DD46E361E08091D000C4DD40E062E0CB
:101130008091D000BFDD4EE361E08091D000BADD48
:1011400041E462E08091D000B5DD4EE361E0809142
:10115000D000B0DD40E062E08091D000ABDD4FE731
:1011600061E08091D000A6DD49E462E08091D0008A
:10117000A1DD46E361E08091D0009CDD40E062E0CB
:101180008091D00097DD4FE761E08091D00092DD43
:1011900048E461E08091D0008DDD44E461E080911D
:1011A000D00088DD43E361E08091D00083DD40E042
:1011B00065E08091D0007ECD20919000309191002B
:1011C00084E090E0821B930B21E02093BF008230EB
:1011D000910519F42093C00002C01092C00003973B
:1011E00021F481E08093C10002C01092C10081E02F
:1011F0008093C20061E08091D00023DA809190005A
:101200009091910001968530910528F4909391007A
:10121000809390000895109291001092900008958C
:1012200020918E0030918F00EFEBF0E081E02E5B9B
:10123000304091E0A9014E0F5F1F41FD04C0813095
:1012400011F0843011F4908301C010828F5F3196C9
:10125000853081F761E08091D000F3D980918E00D4
:1012600090918F0001968530910528F490938F001E
:1012700080938E00089510928F0010928E00089532
:10128000823031F0833031F0813031F434DD089533
:1012900037DD08953EDD0895853031F0863031F038
:1012A000843031F440DD089566DD08958BDD0895C6
:1012B000883049F018F4873041F4ACCD893021F002
:1012C0008A3019F44CCEFBCD2CCE8C3051F018F472
:1012D0008B3041F46CCE8D3019F08E3019F4A0CFE4
:1012E0006BCF97CE803129F0813121F08F3019F406
:1012F000A5CE02C024C00895CF93C091D0008091A4
:1013000064008093D00080916300BADFC093D00066
:10131000809164008F5F8D3018F4809364000DC05D
:1013200091E090936400809163008F5F8F3018F498
:101330008093630002C090936300CF910895CF9390
:10134000C091D000809162008093D00080916100B4
:1013500097DFC093D00080918C008F5F8F3F19F092
:1013600080938C0017C010928C00809162008F5F78
:101370008D3018F4809362000DC091E0909362006C
:10138000809161008F5F8F3018F48093610002C0FC
:1013900090936100CF910895C2D68BD681E080935F
:1013A000B9001092D50063D61092A300F894C0E162
:1013B000D0E21092A200F8948091B900811113C07C
:1013C00061E03FD917BAC8BB85B7877E806185BF0A
:1013D00085B7806285BFDBBFC5BB7894889585B72C
:1013E0008F7D85BFE6CF8091D500811120C080918F
:1013F000CF00811104C08091B80042DFDACF809124
:10140000D200882399F01091D0008091D10090E013
:10141000FC01EA52FF4F20812093D000FC01E855E7
:10142000FF4F80812DDF1093D000C3CF84E6E8D733
:10143000C0CFDC01CB01FC01E199FECF06C0FFBBB0
:10144000EEBBE09A31960DB20D9241505040B8F784
:101450000895E199FECF9FBB8EBBE09A99278DB38B
:101460000895DC01CB0102C02D9105D041505040C0
:10147000D8F70895262FE199FECF1CBA9FBB8EBBEB
:101480002DBB0FB6F894E29AE19A0FBE019608952B
:04149000F894FFCFFE
:1014940001010101010132FF3200FF8C3705FF8C8D
:1014A400370500000000FFFFFFFF0000FFFFFF0003
:0A14B40000FF00FFFF000000FFFF33
:00000001FF
