:100000001AC034C0E5C032C031C030C02FC02EC0CD
:100010002DC02CC02BC02AC029C028C027C09CC21C
:1000200063C2E5C202C21FC277C2E1C2E0C2DFC240
:10003000DEC2B2C239C211241FBECFE5D2E0DEBF9C
:10004000CDBF10E0A0E6B0E0EEE4F5E102C005901F
:100050000D92A03AB107D9F721E0A0EAB0E001C0C3
:100060001D92A233B207E1F790D96FCAC9CF8FE0D2
:1000700087BB8CE188BB089527E030E061E070E049
:10008000482F50E0CB01022E02C0880F991F0A941E
:10009000E2F784239523892B11F092E001C090E0D0
:1000A000892F8C6188BB9D6198BB2150310950F725
:1000B000089580911C01843118F081E080931C0127
:1000C0008091E2008C3018F081E08093E200E2E25F
:1000D000F1E0A2EDB0E081E09081943108F08083FE
:1000E0009C919C3008F08C933196119691E0E1330D
:1000F000F90791F780911E01803110F010921E01D6
:1001000080911E0190911D01981710F080931D01A0
:1001100080911B01823010F010921B01089586E23D
:1001200090E0F4D980931C0185E290E0EFD98093B0
:10013000E2004FE050E064E170E082E291E0D6D965
:100140004FE050E064E070E082ED90E0CFD982E0D3
:1001500090E0DCD980931D0183E090E0D7D98093B3
:100160001E0181E090E0D2D980931B0180E090E0F5
:10017000CDD98093BF009DCF60911C0186E290E0B5
:10018000D6D96091E20085E290E0D1D94FE050E00D
:1001900064E170E082E291E0C1D94FE050E064E0B8
:1001A00070E082ED90E0BAD960911D0182E090E0AC
:1001B000BED960911E0183E090E0B9D960911B0126
:1001C00081E090E0B4D96091BF0080E090E0AFC9D9
:1001D0001F920F920FB60F9211242F933F934F93BC
:1001E0005F936F937F938F939F93AF93BF93EF939F
:1001F000FF93F8945EDF3BDF96B385E194FD10C07A
:1002000096B3EFE9FFE03197F1F700C000008150AD
:10021000A9F781E08093E30084E18093210108C085
:100220008FE097E20197F1F700C000001092E30021
:10023000FF91EF91BF91AF919F918F917F916F91BE
:100240005F914F913F912F910F900FBE0F901F9094
:10025000189589392AE3920760F08FE08093210195
:10026000672B11F080E0089510921D0110921E017D
:1002700013C089352BE1920790F08AE08093210129
:10028000672B81F780911B01811106C081E080936B
:100290001B0180931D0124C010921B0121C0893BCA
:1002A0002BE09207F8F080911B018111DBCF809148
:1002B0001E018F30B8F69BE090932101672B91F6D9
:1002C0008F5F80931E0190E0FC01EE5DFE4F209158
:1002D0001C012083FC01EE52FF4F2091E20020839D
:1002E000E8DE21C08D3D25E0920748F08EE0809346
:1002F0002101672B09F0B6CF1092E30014C08D3BAB
:1003000022E09207A0F085E180932101672B09F09C
:10031000A9CF8091BF008F5F843018F48093BF0015
:1003200002C01092BF0028DF1092210137C085362D
:10033000910598F080911B01811194CF8DE08093FD
:100340002101672B09F08ECF8091E2008F5F8C3006
:1003500008F081E08093E200E6CF0F9708F482CFA7
:10036000672B09F07FCF80911B01811109C080911B
:100370001C018F5F843108F081E080931C010CC068
:1003800080911D018F5F80931D0190911E01981730
:1003900018F481E080931D018CDEEEDE81E008958B
:1003A000B49B03C01092B10003C081E08093B10000
:1003B0006091B100613049F48091AF009091B0003C
:1003C00001969093B0008093AF008091AE006813C7
:1003D00007C070E08091AF009091B0003ADF01C09B
:1003E00080E09091B100911108C02091AE002111E0
:1003F00004C01092B0001092AF009093AE00089528
:10040000CF93C82F80E038DE80E036DE80E034DE37
:1004100080E032DE8C2F90E0FC013A97EC30F10561
:1004200008F0E5C0E15FFF4F09948FEF25DE8AE019
:1004300023DE80E021DE80E01FDE8FEF1DDE8AE01C
:100440001BDE80E019DE80E017DE8FEF15DE8AE02C
:1004500013DE80E011DE80E00FDE8FEF0DDE8AE03C
:100460000BDE80E03EC08FEF07DE80E005DE87E038
:1004700003DE87E001DE8FEFFFDD80E0FDDD87E05A
:10048000FBDD87E0F9DD8FEFF7DD80E0F5DD87E06C
:10049000F3DD87E0F1DD8FEFEFDD80E0EDDD87E07C
:1004A000EBDD87E0E9DDA3C08FEFE6DD80E0E4DD92
:1004B00080E0E2DD8AE0E0DD8FEFDEDD80E0DCDDA4
:1004C0008AE0DADD80E0D8DD8FEFD6DD80E0D4DDB4
:1004D00080E0D2DD8AE0D0DD8FEFCEDD80E0CCDDC4
:1004E0008AE0CADD80E0DECF8FEFC6DD80E0C4DDCC
:1004F0008AE0C2DD80E0C0DD8FEFBEDD80E0BCDDE4
:100500008AE0BADD80E0B8DD8FEFB6DD80E0B4DDF3
:100510008AE0B2DD80E0DFCF8FEFAEDD84E0ACDDDE
:1005200084E0AADD84E0A8DD8FEFA6DD84E0A4DD11
:1005300084E0A2DD84E0A0DD8FEF9EDD84E09CDD21
:1005400084E09ADD84E098DD8FEF96DD84E094DD31
:1005500084E092DD84E0A6CF8FEF8EDD80E08CDD3D
:1005600080E08ADD8AE088DD8FEF86DD80E084DD53
:1005700080E082DD8AE080DD8FEF7EDD80E07CDD63
:1005800080E07ADD8AE078DD8FEF76DD80E074DD73
:1005900080E072DD8AE086CF8FEF6EDD80E06CDD7B
:1005A00080E06ADD8AE068DD8FEF66DD80E064DD93
:1005B0008AE062DD80E060DD8FEF5EDD80E05CDDA3
:1005C0008AE05ADD80E058DD8FEF56DD8AE054DDA9
:1005D00080E052DD80E050DD2FEF81EE94E021508D
:1005E00080409040E1F700C0000010922101CF91BF
:1005F000D7CEE6EFF0E0119281E0E930F807D9F7C5
:100600000895E6EFF0E081E0819391E0E930F907A9
:10061000D9F708952F923F924F925F926F927F92F7
:100620008F929F92AF92BF92CF92DF92EF92FF9202
:100630000F931F93CF93DF93CDB7DEB729970FB6F4
:10064000F894DEBF0FBECDBF89838091BE0081309C
:1006500009F42BC3762E29812987612C46E9542E73
:1006600057E8252E50E0352E6BE1862E61E0962E60
:10067000822F90E0DC01A956BF4FBC83AB83FC0105
:10068000E157FF4FFE83ED839C0129573F4F388789
:100690002F83671409F408C339853830D0F4AB814F
:1006A000BC814C91ED81FE813081AF81B8852C9168
:1006B000E9E0F1E084EE90E060EC70E04193DC0171
:1006C0003D93CD01DB012D93BD018E169F06B1F741
:1006D00057C2B985BA3009F457C068F4B830F9F098
:1006E000B93009F0B1C029E031E0A4EEB0E040EC4F
:1006F00050E08EEF40C0E985EB3009F464C0EC3087
:1007000009F0A2C08091B8009091B9004091BA0060
:10071000E9E0F1E024EE30E060EC70E075C029E043
:1007200031E0A4EEB0E040EC50E08EEF8E3028F0E7
:100730006FEFF90160836C9304C0F9011082FFEF41
:10074000FC93FA0110828F5F2F5F3F4F11964F5F2E
:100750005F4F803159F714C2F90110821C926FEF7C
:10076000FA0160838F5F2F5F3F4F11964F5F5F4F9E
:10077000803109F405C28E3078F36FEFF9016083A0
:100780001C92FA011082EECF89E091E0A4EEB0E075
:1007900040EC50E026E0FC01508216823FEF3487A7
:1007A0005C9216961C9216971C961C921C97FA0146
:1007B0005082368314862150019611964F5F5F4F09
:1007C0002111E9CFDDC1E9E0F1E084EE90E040ECF9
:1007D00050E02FEF208311821282DC011C921196CF
:1007E0001C92119712962C93DA011C9211962C935D
:1007F000119712961C92339603964D5F5F4FB1E0AE
:10080000EB31FB0731F7BCC18193D9019D939D0169
:10081000DB014D93BD01B1E0EB31FB07A9F720915E
:10082000A100211107C09F5F9093B9008150809370
:10083000B80052C0213009F0A3C191509093B90083
:100840008F5F8093B80056C0E985EE3009F458C038
:1008500080F4ED3009F0D0C08091B5004091B60031
:100860009091B700E9E0F1E024EE30E060EC70E058
:100870001EC0F985FF3009F46FC0F03109F0BCC02B
:1008800080916000282F30E0F901E956FF4F408148
:10089000F901E157FF4F9081F901E957FF4F50816E
:1008A000E9E0F1E024EE30E000EC10E093C0819349
:1008B000D9014D939D01DB019D93BD01B1E0EB3169
:1008C000FB07A9F72091A10021110BC09F5F909316
:1008D000B70081508093B5009F3F09F051C181E07E
:1008E00069C0213009F04CC191509093B7008F5FDF
:1008F0008093B5008F3F09F043C11092A10040C121
:100900004091B2009091B3008091B400E9E0F1E031
:1009100024EE30E060EC70E04193D9019D939D019D
:10092000DB018D93BD01B1E0EB31FB07A9F720910D
:10093000A100211107C09F5F9093B3008150809365
:10094000B400CACF213009F01BC191509093B3007D
:100950008F5F8093B400CECF4091BB009091BC00DC
:100960008091BD00E9E0F1E024EE30E060EC70E061
:100970004193D9019D939D01DB018D93BD01B1E0B0
:10098000EB31FB07A9F72091A100211107C09F5F60
:100990009093BC0041504093BB009ECF213069F43E
:1009A0008F5F8093BD0091509093BC008F3F09F002
:1009B000E7C082E08093A100E3C0223009F09DCF20
:1009C00081508093BD004F5F4093BB00882309F4A2
:1009D00094CFD6C04193D9019D939D01D8015D93D9
:1009E0008D01B1E0EB31FB07A9F78F5F893008F08B
:1009F00081E080936000C4C0E985E23109F444C01D
:100A0000E33109F480C0E13109F0BAC08091A0005F
:100A10008F5F8E3118F48093A0001BC01092A0004D
:100A200080917500E5E7F0E09181919320E0E63850
:100A3000F207D1F78093860080917400E4E7F0E03C
:100A400092919183A3E6B0E0AE17BF07C9F78093F8
:100A50006300E5E7F0E049E051E023E630E084EEB2
:100A600090E000EC10E06191DA016D93AD01D901E5
:100A70006D919D01DC016D93CD01D8011D928D0119
:100A80002E163F0681F77CC08091A0008F5F8E31CB
:100A900018F48093A0001CC01092A00080917500F3
:100AA000E5E7F0E09181919326E830E02E173F07CB
:100AB000C9F78093860080917400E4E7F0E092919A
:100AC0009183A3E6B0E0AE17BF07C9F78093630038
:100AD000E5E7F0E049E051E024EE30E083E690E025
:100AE00000EC10E06191DA016D93AD01D9011D9226
:100AF0009D01DC016D91CD01D8016D938D012E1604
:100B00003F0681F73DC08091A0008F5F8E3118F4C1
:100B10008093A0001BC01092A00080917500E5E7B3
:100B2000F0E09181919326E830E02E173F07C9F756
:100B30008093860080917400E4E7F0E092919183C5
:100B400030E0E336F307D1F780936300E9E0F1E0AA
:100B500045E750E024EE30E083E690E000EC10E062
:100B60001192DA016D91AD01D9016D939D01DC0106
:100B70006D91CD01D8016D938D018E169F0681F781
:100B80000FDC813019F48093BE008FC02091BF002C
:100B900089E0E82E81E0F82E94EEC92E90E0D92E5F
:100BA00030ECA32E30E0B32EA501C601F7012130B1
:100BB00071F43081369536953083DC013C91369561
:100BC00036953C93DA013C913695369525C0223016
:100BD00071F4308132953F703083DC013C91329565
:100BE0003F703C93DA013C9132953F7015C0233041
:100BF000A1F4308132953695369533703083DC011F
:100C00003C9132953695369533703C93DA013C91A0
:100C100032953695369533703C93319601964F5FF9
:100C20005F4FB1E0EC31FB0711F680E025DA80E0A0
:100C300023DA80E021DA80E01FDA07EF10E0F80124
:100C400081918F01882381F0D501BC91B983F60190
:100C5000F081FA83D7014C908FEF0EDA89810CDA9C
:100C60008A810ADA842D07C08FEF06DA80E004DA81
:100C700080E002DA80E000DABFEFAB1ABB0AEFEFE8
:100C8000CE1ADE0AFFEFEF1AFF0A29E031E0201743
:100C90003107A9F68FEFF0D98FEFEED98FEFECD9AE
:100CA0008FEFEAD96394F5CC80E029960FB6F894DB
:100CB000DEBF0FBECDBFDF91CF911F910F91FF908F
:100CC000EF90DF90CF90BF90AF909F908F907F90EC
:100CD0006F905F904F903F902F90089592DC6AE064
:100CE00080911C0197CC8DDC6AE080911C0192DC24
:100CF0006AE080E08FCCCF93DF93C6EFD0E0FE01B7
:100D000081E091E08A3010F4918301C011828F5FFD
:100D100031968331B9F76AE080911C017BDC81E078
:100D200091E08A3010F4198201C099838F5F219677
:100D30008331B9F76AE080911C01DF91CF916ACCD1
:100D40008091AC009091AD0022E130E0281B390B7E
:100D5000E7EFF0E081E090E051E0813029F02817E2
:100D6000390711F0823111F4508301C0108231969D
:100D700001968331910589F761E080911C014ADC7D
:100D80008091AC009091AD0001968331910528F4DB
:100D90009093AD008093AC0008951092AD00109236
:100DA000AC0008952091AA003091AB00E7EFF0E08D
:100DB00081E090E041E02817390710F4823111F406
:100DC000408301C01082019631968331910599F7D5
:100DD00061E080911C011EDC8091AA009091AB0023
:100DE00001968331910528F49093AB008093AA007B
:100DF00008951092AB001092AA0008958091A80067
:100E00009091A900E7EFF0E0865F904021E0AC010F
:100E10004E0F5F1F41FF02C0208301C01082319638
:100E200031E0E930F30799F761E080911C01F2DBD2
:100E30008091A8009091A90002968330910528F432
:100E40009093A9008093A80008951092A900109291
:100E5000A80008954091A6005091A70023E130E03A
:100E6000241B350BE7EFF0E081E090E071E04817DC
:100E7000590718F48217930720F0813011F082315E
:100E800011F4708301C0108201963196833191056F
:100E900071F761E080911C01BDDB8091A60090910B
:100EA000A70001968930910528F49093A7008093BC
:100EB000A60008951092A7001092A6000895209110
:100EC000A4003091A500E7EFF0E081E0265F30401C
:100ED00091E0A9014E0F5F1F41FD04C0813011F068
:100EE000823111F4908301C010828F5F319683317B
:100EF00081F761E080911C018DDB8091A4009091CD
:100F0000A50001968331910528F49093A500809364
:100F1000A40008951092A5001092A40008951F93B4
:100F2000CF93DF9366DBC6EFD0E011E0188B1E8312
:100F30001D831C831B8361E080911C016BDB59DBEB
:100F4000198B1F831A8361E080911C0163DB51DBE5
:100F50001A8B1887198361E080911C015BDB49DBE8
:100F60001A8B1987198363E080911C0153DB41DBE5
:100F70001A8B1A87198361E080911C014BDB39DBE6
:100F80001A8B1B87198361E080911C0143DB31DBE5
:100F90001A8B1C87198361E080911C013BDB29DBE4
:100FA000188B1F871E871D871B8361E080911C01A2
:100FB00031DB1FDB64E080911C01DF91CF911F9139
:100FC00029CB1F93CF93DF9314DBC6EFD0E011E062
:100FD0001C831B831A83198361E080911C011ADB37
:100FE00008DB18871F831E831D8361E080911C012D
:100FF00011DBFFDA1C871B871A87198761E0809154
:101000001C0108DBF6DA188B1F871E871D8761E03D
:1010100080911C01FFDAEDDA1A8B198B61E0809167
:101020001C01F8DAE6DA188B1F871E871D8761E03E
:1010300080911C01EFDADDDA1C871B871A8719877C
:1010400061E080911C01E6DAD4DA18871F831E83E1
:101050001D8361E080911C01DDDACBDA1C831B83E8
:101060001A83198361E080911C01D4DAC2DA64E04A
:1010700080911C01DF91CF911F91CCCAC2DA61E04F
:1010800080911C01C7DAB5DAE6EFF0E081E0828BEF
:10109000808781836FE080911C01BCDAAADA64E06A
:1010A00080911C01B7CA1F93CF93DF93A2DAC6EFDA
:1010B000D0E011E0198366E080911C01ABDAA1DA7F
:1010C00061E080911C01A6DA94DA198366E08091D0
:1010D0001C01A0DA8EDA64E080911C01DF91CF91CF
:1010E0001F9198CA1F93CF93DF9383DAC6EFD0E0A6
:1010F00011E01E871D871C871B871A871987188791
:101100001F831E831D8361E080911C0183DA71DAE5
:10111000188B1F871C831B8361E080911C017ADA86
:1011200068DA198B1A8361E080911C0173DA61DA45
:101130001A8B198363E080911C016CDA5ADA198BDF
:101140001A8361E080911C0165DA53DA188B1F87DE
:101150001C831B8361E080911C015CDA4ADA1E87E4
:101160001D871C871B871A87198718871F831E8373
:101170001D8361E080911C014DDA3BDA64E08091CF
:101180001C01DF91CF911F9145CA1F93CF93DF932D
:1011900038DA61E080911C013DDA2BDAC6EFD0E04D
:1011A00011E01A8B1987198364E080911C0132DAEF
:1011B00020DA198B1A8718871A8362E080911C0144
:1011C00029DA1FDA1A8A198A1A86198618861A8263
:1011D000198261E080911C011DDA0BDA64E08091D4
:1011E0001C01DF91CF911F9115CA1F93CF93DF93FD
:1011F00008DA61E080911C010DDAFBD9C6EFD0E07E
:1012000011E01A8B1987198363E080911C0102DABF
:10121000F0D91B871A8718871A8361E080911C0117
:10122000F9D9E7D91D871C8718871A8361E0809157
:101230001C01F0D9DED91F831E831D831C831B83F1
:101240001A8B198B188B1F871E8761E080911C01F8
:10125000E1D9CFD964E080911C01DF91CF911F913A
:10126000D9C9C7D96FE080911C01D4C958DEA9DE65
:1012700005DF19DF37DF89DF35DF87DFB6DFF1CF45
:101280002091A2003091A300E6EFF0E081E090E031
:1012900041E0B90168237923672B11F0418301C034
:1012A0001182019631968331910599F76AE0809118
:1012B0001C01B0D98091A2009091A30001968331C6
:1012C000910528F49093A3008093A20008951092B2
:1012D000A3001092A2000895CF93DF93D0911C0138
:1012E0008091620080931C01C091E20080916100B6
:1012F0008093E200823059F020F4813059F4EEDC22
:1013000009C0833031F0843029F41ADD03C0EBDCEE
:1013100001C0F1DC8091E200863059F020F4853084
:1013200059F440DD09C0873031F0883029F4C7DD39
:1013300003C064DD01C08EDD8091E2008A3031F0AF
:101340008B3031F0893029F491DF03C099DF01C07F
:10135000C3DFD0931C01C093E200809162008F5FD5
:101360008D3018F4809362000DC091E0909362007C
:10137000809161008F5F893018F48093610002C012
:1013800090936100DF91CF910895C9D692D681E004
:101390008093E300109221016AD61092BF00F89466
:1013A000C0E1D0E21092BE00F8948091E300811178
:1013B00013C061E02FD917BAC8BB85B7877E80619B
:1013C00085BF85B7806285BFDBBFC5BB7894889534
:1013D00085B78F7D85BFE6CF80912101811184C0C3
:1013E00080911B01811133C08091E200823059F05D
:1013F00020F4813059F472DC09C0833031F084303C
:1014000029F49EDC03C06FDC01C075DC8091E20032
:10141000863059F020F4853059F4C4DC09C0873097
:1014200031F0883029F44BDD03C0E8DC01C012DD67
:101430008091E2008A3039F08B3039F0893009F040
:10144000B1CF14DFAFCF1CDFADCF46DFABCF809184
:101450001E01882309F447C000911C011091E2008D
:1014600080911D0190E0FC01EE5DFE4F20812093F4
:101470001C01FC01EE52FF4F80818093E20082301C
:1014800059F020F4813059F429DC09C0833031F05F
:10149000843029F455DC03C026DC01C02CDC8091AB
:1014A000E200863059F020F4853059F47BDC09C025
:1014B000873031F0883029F402DD03C09FDC01C0A1
:1014C000C9DC8091E2008A3031F08B3031F0893014
:1014D00029F4CCDE03C0D4DE01C0FEDE00931C0183
:1014E0001093E2005FCF84E68BD75CCFDC01CB01A9
:1014F000FC01E199FECF06C0FFBBEEBBE09A31963E
:101500000DB20D9241505040B8F70895E199FECFC9
:101510009FBB8EBBE09A99278DB30895DC01CB0168
:1015200002C02D9105D041505040D8F70895262F84
:10153000E199FECF1CBA9FBB8EBB2DBB0FB6F894B2
:0E154000E29AE19A0FBE01960895F894FFCF4B
:10154E00010101FFC896693C28140A05050A1428F2
:10155E003C6996C8FFFFC896693C28140A05050A1F
:10156E0014283C6996C8FF00000000FFFFFFFF0033
:10157E0000FFFFFF0000FF00FFFF000000FFFF0065
:00000001FF
