:100000001AC034C0E5C032C031C030C02FC02EC0CD
:100010002DC02CC02BC02AC029C028C027C09CC21C
:1000200063C2E5C202C21FC277C2E1C2E0C2DFC240
:10003000DEC2B2C239C211241FBECFE5D1E0DEBF9D
:10004000CDBF10E0A0E6B0E0ECE9FEE002C0059014
:100050000D92A638B107D9F720E0A6E8B0E001C0BC
:100060001D92A43EB207E1F79DD616C7C9CF8FE017
:1000700087BB8CE188BB089527E030E061E070E049
:10008000482F50E0CB01022E02C0880F991F0A941E
:10009000E2F784239523892B11F092E001C090E0D0
:1000A000892F8C6188BB9D6198BB2150310950F725
:1000B00008958091C600873118F081E08093C600D2
:1000C0008091AE00863018F081E08093AE00ECECB9
:1000D000F0E0AEE9B0E081E09081973108F08083F4
:1000E0009C91963008F08C933196119690E0EB3D00
:1000F000F90791F78091C800803110F01092C80084
:100100008091C8009091C700981710F08093C700A5
:100110008091C500823010F01092C500089586E2EB
:1001200090E09CD68093C60085E290E097D68093BD
:10013000AE004FE050E064E170E08CEC90E07FD6E0
:100140004FE050E064E070E08EE990E078D682E025
:1001500090E084D68093C70083E090E07FD68093C0
:10016000C80081E090E07AD68093C50080E090E0FE
:1001700075D6809399009DCF6091C60086E290E08D
:100180007DD66091AE0085E290E078D64FE050E0F9
:1001900064E170E08CEC90E069D64FE050E064E000
:1001A00070E08EE990E062D66091C70082E090E056
:1001B00065D66091C80083E090E060D66091C5008C
:1001C00081E090E05BD66091990080E090E056C6B7
:1001D0001F920F920FB60F9211242F933F934F93BC
:1001E0005F936F937F938F939F93AF93BF93EF939F
:1001F000FF93F8945EDF3BDF96B385E194FD10C07A
:1002000096B3EFE9FFE03197F1F700C000008150AD
:10021000A9F781E08093AF0084E18093CB0008C010
:100220008FE097E20197F1F700C000001092AF0055
:10023000FF91EF91BF91AF919F918F917F916F91BE
:100240005F914F913F912F910F900FBE0F901F9094
:100250001895813526E4920760F08FE08093CB00FB
:10026000672B11F080E008951092C7001092C8002B
:1002700013C0813127E2920790F08AE08093CB008F
:10028000672B81F78091C500811106C081E08093C2
:10029000C5008093C70024C01092C50021C0893BCF
:1002A0002BE09207F8F08091C5008111DBCF80919F
:1002B000C8008F30B8F69BE09093CB00672B91F687
:1002C0008F5F8093C80090E0FC01E453FF4F2091C2
:1002D000C6002083FC01E256FF4F2091AE00208330
:1002E000E8DE21C08D3D25E0920748F08EE0809346
:1002F000CB00672B09F0B6CF1092AF0014C08D3B36
:1003000022E09207A0F085E18093CB00672B09F0F3
:10031000A9CF809199008F5F843018F48093990061
:1003200002C01092990028DF1092CB0037C08536AA
:10033000910598F08091C500811194CF8DE0809354
:10034000CB00672B09F08ECF8091AE008F5F863097
:1003500008F081E08093AE00E6CF0F9708F482CFDB
:10036000672B09F07FCF8091C500811109C0809172
:10037000C6008F5F873108F081E08093C6000CC013
:100380008091C7008F5F8093C7009091C800981735
:1003900018F481E08093C7008CDEEEDE81E00895E2
:1003A000B49B03C010928B0003C081E080938B004C
:1003B00060918B00613049F48091890090918A00AE
:1003C000019690938A008093890080918800681339
:1003D00007C070E08091890090918A003ADF01C0E7
:1003E00080E090918B00911108C02091880021112C
:1003F00004C010928A00109289009093880008959A
:10040000CF93C82F80E038DE80E036DE80E034DE37
:1004100080E032DE8C2F90E0FC013A97EC30F10561
:1004200008F0E5C0E15FFF4F09948FEF25DE8AE019
:1004300023DE80E021DE80E01FDE8FEF1DDE8AE01C
:100440001BDE80E019DE80E017DE8FEF15DE8AE02C
:1004500013DE80E011DE80E00FDE8FEF0DDE8AE03C
:100460000BDE80E03EC08FEF07DE80E005DE87E038
:1004700003DE87E001DE8FEFFFDD80E0FDDD87E05A
:10048000FBDD87E0F9DD8FEFF7DD80E0F5DD87E06C
:10049000F3DD87E0F1DD8FEFEFDD80E0EDDD87E07C
:1004A000EBDD87E0E9DDA3C08FEFE6DD80E0E4DD92
:1004B00080E0E2DD8AE0E0DD8FEFDEDD80E0DCDDA4
:1004C0008AE0DADD80E0D8DD8FEFD6DD80E0D4DDB4
:1004D00080E0D2DD8AE0D0DD8FEFCEDD80E0CCDDC4
:1004E0008AE0CADD80E0DECF8FEFC6DD80E0C4DDCC
:1004F0008AE0C2DD80E0C0DD8FEFBEDD80E0BCDDE4
:100500008AE0BADD80E0B8DD8FEFB6DD80E0B4DDF3
:100510008AE0B2DD80E0DFCF8FEFAEDD84E0ACDDDE
:1005200084E0AADD84E0A8DD8FEFA6DD84E0A4DD11
:1005300084E0A2DD84E0A0DD8FEF9EDD84E09CDD21
:1005400084E09ADD84E098DD8FEF96DD84E094DD31
:1005500084E092DD84E0A6CF8FEF8EDD80E08CDD3D
:1005600080E08ADD8AE088DD8FEF86DD80E084DD53
:1005700080E082DD8AE080DD8FEF7EDD80E07CDD63
:1005800080E07ADD8AE078DD8FEF76DD80E074DD73
:1005900080E072DD8AE086CF8FEF6EDD80E06CDD7B
:1005A00080E06ADD8AE068DD8FEF66DD80E064DD93
:1005B0008AE062DD80E060DD8FEF5EDD80E05CDDA3
:1005C0008AE05ADD80E058DD8FEF56DD8AE054DDA9
:1005D00080E052DD80E050DD2FEF81EE94E021508D
:1005E00080409040E1F700C000001092CB00CF9116
:1005F000D7CEE4EBF0E010821182128213821482D3
:100600000895CF93DF93EAE9F0E0C0EBD0E0A1ECEE
:10061000B0E0119219921D9280E0EE39F807C9F707
:10062000DF91CF910895FC01308121E0261720F45D
:10063000418141932F5FFACF860F911DFC013197C5
:1006400030830895FC01E60FF11D31972081615040
:10065000FC0139F0E60FF11DDF0111973C91308369
:10066000F6CF208308952F923F924F925F926F9220
:100670007F928F929F92AF92BF92CF92DF92EF9232
:10068000FF920F931F93CF93DF93CDB7DEB72797DA
:100690000FB6F894DEBF0FBECDBF8983809198005E
:1006A000813009F4FCC2962E29812F83812C772476
:1006B0007394BDE62B2EB0E03B2E822F90E0BC0160
:1006C00063587F4F7A836983DC01AB58BF4FBC838B
:1006D000AB83FC01E359FF4FFE83ED83891409F4DA
:1006E000DDC2FF81F830E0F4A981BA814C91EB8141
:1006F000FC813081AD81BE812C91E1ECF0E080EB9A
:1007000090E00AE910E04193DC013D93CD01D8016E
:100710002D938D0165EC70E06E177F07A1F726C25F
:100720007F81793079F07A30C1F0783009F569DF6E
:100730008FEF8093B0008093B2008093C4008093C9
:10074000C20014C25EDF9FEF9093B0009093B2009E
:1007500090939D0090939B0009C253DFAFEFA0934D
:100760009A00A0939C00A093C400A093C200FEC175
:10077000BF81BC3079F0BD30C1F0BB3009F541DF3D
:10078000EFEFE093B000E093B300E093C300E09399
:10079000C200ECC136DFFFEFF093B000F093B3007E
:1007A000F0939C00F0939B00E1C12BDF2FEF20938F
:1007B0009A0020939D002093C3002093C200D6C1CD
:1007C0003F813E3061F5809192009091930040917D
:1007D0009400E1ECF0E020EB30E06AE970E0819316
:1007E000D9019D939D01DB014D93BD01B0E0E53C36
:1007F000FB07A9F720918700211107C09F5F909305
:10080000930081508093920052C0213009F0AEC114
:100810009150909393008F5F8093920057C0EF8127
:10082000E03109F459C080F4EF3009F0D3C0809171
:100830008F004091900090919100E1ECF0E020EB6E
:1008400030E06AE970E01EC0FF81F13109F470C048
:10085000F23109F0BFC080916000282F30E0F9012B
:10086000E358FF4F4081F901EB58FF4F9081F901A8
:10087000E359FF4F5081E1ECF0E020EB30E00AE972
:1008800010E094C08193D9014D939D01DB019D93AC
:10089000BD01B0E0E53CFB07A9F7209187002111DD
:1008A0000CC09F5F90939100815080938F009F3F79
:1008B00009F05CC17092870059C1213009F056C11E
:1008C0009150909391008F5F80938F008F3F09F03C
:1008D0004DC1109287004AC140918C0090918D00CB
:1008E00080918E00E1ECF0E020EB30E06AE970E00E
:1008F0004193D9019D939D01DB018D93BD01B0E032
:10090000E53CFB07A9F720918700211107C09F5FF5
:1009100090938D00815080938E00C9CF213009F0D3
:1009200025C1915090938D008F5F80938E00CECF24
:10093000409195009091960080919700E1ECF0E055
:1009400020EB30E06AE970E04193D9019D939D016D
:10095000DB018D93BD01B0E0E53CFB07A9F72091D9
:100960008700211107C09F5F9093960041504093EC
:1009700095009DCF213069F48F5F8093970091504F
:10098000909396008F3F09F0F1C0E2E0E09387007A
:10099000EDC0223009F09DCF8150809397004F5FCA
:1009A00040939500882309F494CFE0C04193D90186
:1009B0009D939D01D8015D938D01B0E0E53CFB075F
:1009C000A9F78F5F893018F480936000CFC07092D0
:1009D0006000CCC0EF81E431C9F118F4E33149F093
:1009E000C5C0FF81F53109F45FC0F63109F48AC052
:1009F000BDC0809186008F5F8C3318F48093860091
:100A00000AC01092860064E089E690E00CDE64E0A3
:100A100085E690E017DEE9E6F0E041EC50E025E6FF
:100A200030E080EB90E00AE910E06191DA016D932B
:100A3000AD01D9016D919D01DC016D93CD01D8010E
:100A40001D928D012E163F0681F790C08091860081
:100A50008F5F8C3318F4809386000AC01092860052
:100A600064E089E690E0DFDD64E085E690E0EADDC1
:100A7000E9E6F0E041EC50E020EB30E085E690E084
:100A80000AE910E06191DA016D93AD01D9011D927F
:100A90009D01DC016D91CD01D8016D938D01B0E018
:100AA000ED36FB0779F762C0809186008F5F8C334B
:100AB00018F4809386000AC01092860064E089E6EC
:100AC00090E0B1DD64E085E690E0BCDDE1ECF0E0D3
:100AD00049E650E020EB30E085E690E00AE910E0DE
:100AE0001192DA016D91AD01D9016D939D01DC0187
:100AF0006D91CD01D8016D938D01B0E0E53CFB0710
:100B000079F734C0809186008F5F8C3318F480931E
:100B100086000AC01092860064E089E690E083DDDA
:100B200064E085E690E08EDDE1E6F0E061EC70E007
:100B300049E650E020EB30E085E690E0AAE9EA2EB5
:100B4000A0E0FA2E1191DB011D93BD01DA011D9188
:100B5000AD01D9011D939D01DC011D91CD01D7018E
:100B60001D937D01B0E0E536FB0761F719DC8130AC
:100B700019F48093980093C02091990081ECE82E9D
:100B800080E0F82E90EBC92E90E0D92E3AE9A32E02
:100B900030E0B32EA501C601F701213071F4308198
:100BA000369536953083DC013C91369536953C93ED
:100BB000DA013C913695369525C0223071F43081AA
:100BC00032953F703083DC013C9132953F703C930D
:100BD000DA013C9132953F7015C02330A1F4308189
:100BE00032953695369533703083DC013C913295E1
:100BF0003695369533703C93DA013C9132953695B3
:100C0000369533703C93319601964F5F5F4FB0E05D
:100C1000E63CFB0711F680E02FDA80E02DDA80E079
:100C20002BDA80E029DA05EB10E0F80181918F01E1
:100C3000882371F0D5016C90F6014080D7015C905B
:100C40008FEF1ADA862D18DA842D16DA852D07C073
:100C50008FEF12DA80E010DA80E00EDA80E00CDA52
:100C6000BFEFAB1ABB0AEFEFCE1ADE0AFFEFEF1AA7
:100C7000FF0A29EB30E020173107B9F68FEFFCD9D6
:100C80008FEFFAD98FEFF8D98FEFF6D98FEC97E085
:100C90000197F1F700C00000839420CD80E02796F3
:100CA0000FB6F894DEBF0FBECDBFDF91CF911F917D
:100CB0000F91FF90EF90DF90CF90BF90AF909F90FB
:100CC0008F907F906F905F904F903F902F900895FE
:100CD0001F93CF93DF93D82F162FC42F8ADCC0FF2A
:100CE00003C081E08093B500C1FF03C081E0809321
:100CF000B600C2FF03C081E08093B700C3FF03C00A
:100D000081E08093B800612F8D2FDF91CF911F91EB
:100D1000AACC4FEF6CE08091C600DACF4FEF66E0CF
:100D20008091C600D5DF4FEF66E080E0D1CF43E091
:100D30006CE38091C600CCDF4CE06CE38091C60090
:100D4000C7CF45E06CE38091C600C2DF4AE06CE3A8
:100D50008091C600BDCF41E06EE18091C600B8DF52
:100D600042E06EE18091C600B3DF44E06EE1809125
:100D7000C600AEDF48E06EE18091C600A9CF8330A7
:100D800061F028F4813041F0823049F4C7CF8430DB
:100D900029F0853021F4DFCFBCCFC9CFD2CF61E0BD
:100DA00080E061CCBCD985D981E08093AF001092FE
:100DB000CB005DD910929900F894C0E1D0E2109276
:100DC0009800F8948091AF00811113C061E04BDC72
:100DD00017BAC8BB85B7877E806185BF85B780623B
:100DE00085BFDBBFC5BB7894889585B78F7D85BFF0
:100DF000E6CF8091CB00811120C08091C500811188
:100E000004C08091AE00BBDFDACF8091C800882398
:100E100099F01091C6008091C70090E0FC01E45366
:100E2000FF4F20812093C600FC01E256FF4F8081D6
:100E3000A6DF1093C600C3CF84E6E2DAC0CFDC01A0
:100E4000862FE82FE199FECF1FBA05C0EEBBE09ACE
:100E5000E3950DB20D924150C8F70895E199FECF88
:100E60001FBA8EBBE09A99278DB30895DC01862FB7
:100E700002C02D9104D04150E0F70895262FE1994A
:100E8000FECF1CBA1FBA8EBB2DBB0FB6F894E29AE8
:0C0E9000E19A0FBE01960895F894FFCF80
:100E9C000132FF3200FF8C3705FF8C370500000054
:100EAC0000FFFFFFFF0000FFFFFF0000FF00FFFF40
:060EBC00000000FFFF0032
:00000001FF
