:100000001AC034C0E5C032C031C030C02FC02EC0CD
:100010002DC02CC02BC02AC029C028C027C09CC21C
:1000200063C2E5C202C21FC277C2E1C2E0C2DFC240
:10003000DEC2B2C239C211241FBECFE5D2E0DEBF9C
:10004000CDBF10E0A0E6B0E0E8E0F6E102C0059028
:100050000D92A639B107D9F721E0A6E9B0E001C0B9
:100060001D92AA31B207E1F751DACCCAC9CF8FE0AD
:1000700087BB8CE188BB089527E030E061E070E049
:10008000482F50E0CB01022E02C0880F991F0A941E
:10009000E2F784239523892B11F092E001C090E0D0
:1000A000892F8C6188BB9D6198BB2150310950F725
:1000B00008958091F400873118F081E08093F40076
:1000C0008091C800823118F081E08093C800EAEF87
:1000D000F0E0A8EBB0E081E09081973108F08083F8
:1000E0009C91923108F08C933196119691E0E93011
:1000F000F90791F78091F600803110F01092F60028
:100100008091F6009091F500981710F08093F5001B
:100110008091F300823010F01092F300089586E28F
:1001200090E051DA8093F40085E290E04CDA80931D
:10013000C8004FE050E064E170E08AEF90E033DA0D
:100140004FE050E064E070E088EB90E02CDA82E071
:1001500090E039DA8093F50083E090E034DA809320
:10016000F60081E090E02FDA8093F30080E090E0E9
:100170002ADA8093AF009DCF6091F40086E290E090
:1001800033DA6091C80085E290E02EDA4FE050E06B
:1001900064E170E08AEF90E01EDA4FE050E064E046
:1001A00070E088EB90E017DA6091F50082E090E073
:1001B0001BDA6091F60083E090E016DA6091F300BC
:1001C00081E090E011DA6091AF0080E090E00CCA2D
:1001D0001F920F920FB60F9211242F933F934F93BC
:1001E0005F936F937F938F939F93AF93BF93EF939F
:1001F000FF93F8945EDF3BDF96B385E194FD10C07A
:1002000096B3EFE9FFE03197F1F700C000008150AD
:10021000A9F781E08093C90084E18093F90008C0C8
:100220008FE097E20197F1F700C000001092C9003B
:10023000FF91EF91BF91AF919F918F917F916F91BE
:100240005F914F913F912F910F900FBE0F901F9094
:100250001895813526E4920760F08FE08093F900CD
:10026000672B11F080E008951092F5001092F600CF
:1002700013C0813127E2920790F08AE08093F90061
:10028000672B81F78091F300811106C081E0809394
:10029000F3008093F50024C01092F30021C0893B45
:1002A0002BE09207F8F08091F3008111DBCF809171
:1002B000F6008F30B8F69BE09093F900672B91F62B
:1002C0008F5F8093F60090E0FC01E650FF4F209195
:1002D000F4002083FC01E854FF4F2091C8002083E4
:1002E000E8DE21C08D3D25E0920748F08EE0809346
:1002F000F900672B09F0B6CF1092C90014C08D3BEE
:1003000022E09207A0F085E18093F900672B09F0C5
:10031000A9CF8091AF008F5F843018F48093AF0035
:1003200002C01092AF0028DF1092F90037C0853666
:10033000910598F08091F300811194CF8DE0809326
:10034000F900672B09F08ECF8091C8008F5F823152
:1003500008F081E08093C800E6CF0F9708F482CFC1
:10036000672B09F07FCF8091F300811109C0809144
:10037000F4008F5F873108F081E08093F4000CC0B7
:100380008091F5008F5F8093F5009091F6009817AB
:1003900018F481E08093F5008CDEEEDE81E00895B4
:1003A000B49B03C01092A10003C081E08093A10020
:1003B0006091A100613049F480919F009091A0006C
:1003C00001969093A00080939F0080919E006813F7
:1003D00007C070E080919F009091A0003ADF01C0BB
:1003E00080E09091A100911108C020919E00211100
:1003F00004C01092A00010929F0090939E00089558
:10040000CF93C82F80E038DE80E036DE80E034DE37
:1004100080E032DE8C2F90E0FC013A97EC30F10561
:1004200008F0E5C0E15FFF4F09948FEF25DE8AE019
:1004300023DE80E021DE80E01FDE8FEF1DDE8AE01C
:100440001BDE80E019DE80E017DE8FEF15DE8AE02C
:1004500013DE80E011DE80E00FDE8FEF0DDE8AE03C
:100460000BDE80E03EC08FEF07DE80E005DE87E038
:1004700003DE87E001DE8FEFFFDD80E0FDDD87E05A
:10048000FBDD87E0F9DD8FEFF7DD80E0F5DD87E06C
:10049000F3DD87E0F1DD8FEFEFDD80E0EDDD87E07C
:1004A000EBDD87E0E9DDA3C08FEFE6DD80E0E4DD92
:1004B00080E0E2DD8AE0E0DD8FEFDEDD80E0DCDDA4
:1004C0008AE0DADD80E0D8DD8FEFD6DD80E0D4DDB4
:1004D00080E0D2DD8AE0D0DD8FEFCEDD80E0CCDDC4
:1004E0008AE0CADD80E0DECF8FEFC6DD80E0C4DDCC
:1004F0008AE0C2DD80E0C0DD8FEFBEDD80E0BCDDE4
:100500008AE0BADD80E0B8DD8FEFB6DD80E0B4DDF3
:100510008AE0B2DD80E0DFCF8FEFAEDD84E0ACDDDE
:1005200084E0AADD84E0A8DD8FEFA6DD84E0A4DD11
:1005300084E0A2DD84E0A0DD8FEF9EDD84E09CDD21
:1005400084E09ADD84E098DD8FEF96DD84E094DD31
:1005500084E092DD84E0A6CF8FEF8EDD80E08CDD3D
:1005600080E08ADD8AE088DD8FEF86DD80E084DD53
:1005700080E082DD8AE080DD8FEF7EDD80E07CDD63
:1005800080E07ADD8AE078DD8FEF76DD80E074DD73
:1005900080E072DD8AE086CF8FEF6EDD80E06CDD7B
:1005A00080E06ADD8AE068DD8FEF66DD80E064DD93
:1005B0008AE062DD80E060DD8FEF5EDD80E05CDDA3
:1005C0008AE05ADD80E058DD8FEF56DD8AE054DDA9
:1005D00080E052DD80E050DD2FEF81EE94E021508D
:1005E00080409040E1F700C000001092F900CF91E8
:1005F000D7CEE2EDF0E0119280E0EB3DF807D9F7BD
:100600000895FC01308121E0261720F441814193B7
:100610002F5FFACF860F911DFC013197308308952B
:10062000FC01E60FF11D319720816150FC0139F08A
:10063000E60FF11DDF0111973C913083F6CF208347
:1006400008952F923F924F925F926F927F928F9276
:100650009F92AF92BF92CF92DF92EF92FF920F9351
:100660001F93CF93DF93CDB7DEB727970FB6F894DC
:10067000DEBF0FBECDBF89838091AE00813009F40B
:10068000A8C3562E29812F83812CB6E99B2E77246F
:10069000739412E0612E822F90E0BC0162577F4F6D
:1006A0007A836983DC01AA57BF4FBC83AB83FC010B
:1006B000E258FF4FFE83ED83851409F489C3FF815F
:1006C000F830E0F4A981BA814C91EB81FC81308152
:1006D000AD81BE812C91EBEEF0E08AEC90E000EB76
:1006E00010E04193DC013D93CD01D8012D938D01A4
:1006F00063EF70E06E177F07A1F7D2C27F817A3077
:1007000009F474C068F47830E1F1793009F0CAC0B6
:100710002BEE30E0AAECB0E040EB50E08EEF5DC095
:100720008F818B3009F48CC08C3009F0BBC09FEFF7
:100730009093B7009093B6009093B5009093B40057
:100740009093EE009093ED009093EC009093EB006B
:100750001092F2001092F1001092F0001092EF004F
:100760001092CD001092CC001092CB001092CA00D3
:100770001092D1001092D0001092CF001092CE00B3
:1007800088C02BEE30E0AAECB0E040EB50E08EEFFA
:10079000843028F06FEFF90160836C9304C0F90195
:1007A0001082FFEFFC93FA0110828F5F2F5F3F4FA3
:1007B00011964F5F5F4F863059F772C2F901108270
:1007C0001C926FEFFA0160838F5F2F5F3F4F11968E
:1007D0004F5F5F4F863009F463C2843078F36FEF68
:1007E000F90160831C92FA011082EECF9092B10061
:1007F0009092B0009092CB009092CA009092EC0040
:100800009092EB001092CC001092CF001092CE008C
:100810001092CD001092ED001092F0001092EF00B7
:100820001092EE007FEF7093B5007093B400709358
:10083000B3007093B2007093F2007093F10030C275
:100840008FEF8093D1008093D0008093CF0080936E
:10085000CE008093EE008093ED008093EC008093B7
:10086000EB001092F2001092F1001092F000109242
:10087000EF001092CD001092CC001092CB0010929D
:10088000CA001092B7001092B6001092B5001092F4
:10089000B4001092B3001092B2001092B100109206
:1008A000B000FEC1AF81AD3081F0AE3009F050C074
:1008B0008091A8009091A9004091AA00EBEEF0E091
:1008C0002AEC30E060EB70E023C0E0EBF0E08AEC73
:1008D00090E04BEE50E01192DC011D92CD01DA0167
:1008E0001D92AD01B0E0E83BFB07A9F7EFEFE09305
:1008F000B700E093F100E093CF00E093B400E09301
:10090000EE00E093CC00E093B100E093EB00C8C1AF
:100910008193D9019D939D01DB014D93BD01B0E011
:10092000E33FFB07A9F720919700211107C09F5FC4
:100930009093A90081508093A80052C0213009F003
:10094000AFC191509093A9008F5F8093A80057C0CA
:10095000EF81E03109F459C080F4EF3009F0D2C0E2
:100960008091A5004091A6009091A700EBEEF0E0E9
:100970002AEC30E060EB70E01EC0FF81F13109F439
:1009800070C0F23109F0BEC080916000282F30E0C5
:10099000F901E257FF4F4081F901EA57FF4F90817B
:1009A000F901E258FF4F5081EBEEF0E02AEC30E025
:1009B00000EB10E093C08193D9014D939D01DB01C1
:1009C0009D93BD01B0E0E33FFB07A9F7209197009D
:1009D00021110CC09F5F9093A70081508093A500C8
:1009E0009F3F09F05DC1709297005AC1213009F014
:1009F00057C191509093A7008F5F8093A5008F3FC0
:100A000009F04EC1109297004BC14091A200909105
:100A1000A3008091A400EBEEF0E02AEC30E060EB64
:100A200070E04193D9019D939D01DB018D93BD0140
:100A3000B0E0E33FFB07A9F720919700211107C021
:100A40009F5F9093A30081508093A400C9CF213071
:100A500009F026C191509093A3008F5F8093A4006A
:100A6000CECF4091AB009091AC008091AD00EBEE09
:100A7000F0E02AEC30E060EB70E04193D9019D9307
:100A80009D01DB018D93BD01B0E0E33FFB07A9F7BA
:100A900020919700211107C09F5F9093AC004150B7
:100AA0004093AB009DCF213061F48F5F8093AD0008
:100AB00091509093AC008F3F09F0F2C06092970084
:100AC000EFC0223009F09ECF81508093AD004F5F80
:100AD0004093AB00882309F495CFE2C04193D9013C
:100AE0009D939D01D8015D938D01B0E0E33FFB072D
:100AF000A9F78F5F893018F480936000D1C070929D
:100B00006000CEC0EF81E431D9F118F4E33149F04F
:100B1000C7C0FF81F53109F461C0F63109F48CC01A
:100B2000BFC0809196008F5F8C3318F4809396003D
:100B30000AC01092960068E086E790E062DD68E007
:100B40008EE690E06DDDE6E7F0E04BEE50E02EE65D
:100B500030E08AEC90E000EB10E06191DA016D93F7
:100B6000AD01D9016D919D01DC016D93CD01D801DD
:100B70001D928D016EE770E06E177F0771F790C0D0
:100B8000809196008F5F8C3318F4809396000AC092
:100B90001092960068E086E790E033DD68E08EE62C
:100BA00090E03EDDE6E7F0E04BEE50E02AEC30E08E
:100BB0008EE690E000EB10E06191DA016D93AD01FB
:100BC000D9011D929D01DC016D91CD01D8016D937C
:100BD0008D01B0E0EE37FB0779F762C08091960097
:100BE0008F5F8C3318F4809396000AC010929600A1
:100BF00068E086E790E005DD68E08EE690E010DDD5
:100C0000EBEEF0E046E750E02AEC30E08EE690E0D4
:100C100000EB10E01192DA016D91AD01D9016D93F5
:100C20009D01DC016D91CD01D8016D938D01B0E086
:100C3000E33FFB0779F734C0809196008F5F8C33D8
:100C400018F4809396000AC01092960068E086E738
:100C500090E0D7DC68E08EE690E0E2DCE6E6F0E0EB
:100C60006BEE70E046E750E02AEC30E08EE690E074
:100C7000A0EBEA2EA0E0FA2E1191DB011D93BD013D
:100C8000DA011D91AD01D9011D939D01DC011D917A
:100C9000CD01D7011D937D01B0E0EE36FB0761F772
:100CA0007FDB813019F48093AE0093C02091AF00B8
:100CB0008BEEE82E80E0F82E9AECC92E90E0D92E2B
:100CC00030EBA32E30E0B32EA501C601F701213091
:100CD00071F43081369536953083DC013C91369540
:100CE00036953C93DA013C913695369525C02230F5
:100CF00071F4308132953F703083DC013C91329544
:100D00003F703C93DA013C9132953F7015C023301F
:100D1000A1F4308132953695369533703083DC01FD
:100D20003C9132953695369533703C93DA013C917F
:100D300032953695369533703C93319601964F5FD8
:100D40005F4FB0E0E43FFB0711F680E095D980E00B
:100D500093D980E091D980E08FD903ED10E0F801BC
:100D600081918F01882371F0D5012C90F60130809C
:100D7000D7014C908FEF80D9822D7ED9832D7CD9DD
:100D8000842D07C08FEF78D980E076D980E074D9C0
:100D900080E072D9BFEFAB1ABB0AEFEFCE1ADE0AC2
:100DA000FFEFEF1AFF0A2BED30E020173107B9F6FD
:100DB0008FEF62D98FEF60D98FEF5ED98FEF5CD95B
:100DC0008FEC97E00197F1F700C00000839474CC9A
:100DD00080E027960FB6F894DEBF0FBECDBFDF913F
:100DE000CF911F910F91FF90EF90DF90CF90BF9028
:100DF000AF909F908F907F906F905F904F903F90BB
:100E00002F9008951F93CF93DF93D82F162FC42FC1
:100E1000F0DBC0FF03C081E08093D300C1FF03C0BB
:100E200081E08093D400C2FF03C081E08093D500AD
:100E3000C3FF03C081E08093D600C4FF03C081E0FC
:100E40008093D700C5FF03C081E08093D800C6FF20
:100E500003C081E08093D900C7FF03C081E0809385
:100E6000DA00612F8D2FDF91CF911F91EACB4FEFE9
:100E70006AE08091F400C6CF4FEF66E08091F40005
:100E8000C1DF4FEF66E080E0BDCF4FE066E08091CC
:100E9000F400B8DF40EF66E08091F400B3CF41E0AA
:100EA00063E08091F400AEDF42E063E08091F40003
:100EB000A9DF44E063E08091F400A4DF48E063E050
:100EC0008091F4009FDF40E163E08091F4009ADFBD
:100ED00040E263E08091F40095DF40E463E08091BC
:100EE000F40090DF4FEF62E08091F4008BCF40E0A0
:100EF00063E080E087DF48E163E08091F40082DF17
:100F000044E263E08091F4007DDF46E663E0809197
:100F1000F40078DF49E966E08091F40073DF46E68B
:100F200063E08091F4006EDF44E263E08091F400BE
:100F300069DF48E163E08091F40064CF4CE36BE04B
:100F40008091F4005FDF48E163E08091F4005ADFB4
:100F50004EE763E08091F40055DF47EE63E0809157
:100F6000F40050DF43EC69E08091F4004BDF47EE82
:100F700063E08091F40046DF4EE763E08091F40087
:100F800041DF48E163E08091F4003CCF42E063E060
:100F90008091F40037DF41E063E08091F40032DFBC
:100FA00046E863E08091F4002DDF48E463E080913F
:100FB000F40028DF4EE769E08091F40023DF44E18C
:100FC00063E08091F4001EDF44E363E08091F4006D
:100FD00019DF42E463E08091F40014DF41E266E04F
:100FE0008091F4000FDF42E263E08091F4000ADFB9
:100FF00042E563E08091F40005DF4CE463E080911A
:10100000F40000DF44E863E08091F400FBDE48E494
:1010100063E08091F400F6DE4CE863E08091F40038
:10102000F1DE42E863E08091F400ECDE42E063E050
:101030008091F400E7CE40E063E08091F400E2DECE
:1010400040E663E08091F400DDDE4CE763E08091F0
:10105000F400D8DE4EE163E08091F400D3DE4FE38C
:1010600063E08091F400CEDE4FEF63E08091F40006
:10107000C9DE4FE363E08091F400C4DE4EE163E03B
:101080008091F400BFDE4CE763E08091F400BADEAB
:1010900040E663E08091F400B5CE40E066E08091E8
:1010A000F400B0DE40EE66E08091F400ABDE44EE8A
:1010B00063E08091F400A6DE48E166E08091F400F0
:1010C000A1DE47E263E08091F4009CDE47E066E049
:1010D0008091F40097CE40E063E08091F40092DECE
:1010E00040E663E08091F4008DDE40E863E08091AB
:1010F000F40088DE4DE863E08091F40083DE40E98F
:1011000063E08091F4007EDE40E663E08091F400CD
:1011100079DE40E063E08091F40074DE4DEF63E03F
:101120008091F4006FCE40E063E08091F4006ADECD
:1011300040E763E08091F40065DE48EF63E0809172
:10114000F40060DE4CEF63E08091F4005BDE4EE77C
:1011500063E08091F40056DE4FE063E08091F4009C
:1011600051DE4EE763E08091F4004CDE4CEF63E02B
:101170008091F40047DE48EF63E08091F40042DEA6
:1011800040E763E08091F4003DCE4091990080916A
:101190006500480F4093990063E08091F40032DECF
:1011A000809199008F3F19F0811103C081E08093F5
:1011B0006500089540E361E08091F40023DE49E496
:1011C00062E08091F4001EDE46E061E08091F40070
:1011D00019DE40E062E08091F40014DE40E761E057
:1011E0008091F4000FDE4CE061E08091F4000ADEB3
:1011F00043E061E08091F40005DE4CE061E0809125
:10120000F40000DE40E761E08091F400FBDD40E0A7
:1012100062E08091F400F6DD4FE761E08091F40038
:10122000F1DD49E463E08091F400ECDD40E062E050
:101230008091F400E7DD40E462E08091F400E2DDBB
:101240004FE761E08091F400DDDD40E462E08091F1
:10125000F400D8DD40E062E08091F400D3DD4EE39D
:1012600061E08091F400CEDD41E462E08091F40021
:10127000C9DD4EE361E08091F400C4DD40E062E04E
:101280008091F400BFDD4FE761E08091F400BADDAA
:1012900049E462E08091F400B5DD46E361E08091CD
:1012A000F400B0DD40E062E08091F400ABDD4EE39D
:1012B00061E08091F400A6DD41E462E08091F400F9
:1012C000A1DD4EE361E08091F4009CDD40E062E04E
:1012D0008091F40097DD4FE761E08091F40092DDAA
:1012E00049E462E08091F4008DDD46E361E08091A5
:1012F000F40088DD40E062E08091F40083DD4FE798
:1013000061E08091F4007EDD48E461E08091F400CA
:1013100079DD44E461E08091F40074DD43E361E051
:101320008091F4006FDD40E065E08091F4006ACDCB
:1013300080919C0090919D0028E030E0281B390BA3
:10134000E3EDF0E081E090E051E0813029F02817F2
:10135000390711F0883011F4508301C010823196A2
:1013600001968930910589F761E08091F40069D98F
:1013700080919C0090919D0001968930910528F400
:1013800090939D0080939C00089510929D00109270
:101390009C00089520919A0030919B00E3EDF0E0CD
:1013A00081E0225D304091E0A9014E0F5F1F41FDB9
:1013B00004C0813011F0883011F4908301C0108294
:1013C0008F5F3196893081F761E08091F40039D9DF
:1013D00080919A0090919B0001968930910528F4A4
:1013E00090939B0080939A00089510929B00109216
:1013F0009A000895823031F0833031F0813031F439
:1014000036DD089539DD089540DD0895853031F0E9
:10141000863031F0843031F442DD089568DD08957E
:101420008DDD0895883049F018F4873041F4AECD51
:10143000893021F08A3019F44ECEFDCD2ECE8C307D
:1014400051F018F48B3041F46ECE8D3019F08E309F
:1014500019F4A0CF6DCF99CE803129F0813121F0E0
:101460008F3019F4A7CE02C024C00895CF93C09145
:10147000F400809164008093F40080916300BADFEF
:10148000C093F400809164008F5F8D3018F48093D6
:1014900064000DC091E090936400809163008F5FC1
:1014A0008F3018F48093630002C090936300CF9153
:1014B0000895CF93C091F400809162008093F4006E
:1014C0008091610097DFC093F400809198008F5F56
:1014D0008F3F19F08093980017C010929800809168
:1014E00062008F5F8D3018F4809362000DC091E030
:1014F00090936200809161008F5F8F3018F4809329
:10150000610002C090936100CF91089508D6D1D5B3
:1015100081E08093C9001092F900A9D51092AF0024
:10152000F894C0E1D0E21092AE00F8948091C90026
:10153000811113C061E085D817BAC8BB85B7877E13
:10154000806185BF85B7806285BFDBBFC5BB7894EE
:10155000889585B78F7D85BFE6CF8091F900811191
:1015600020C08091F300811104C08091C80042DF47
:10157000DACF8091F600882399F01091F4008091E1
:10158000F50090E0FC01E650FF4F20812093F4002D
:10159000FC01E854FF4F80812DDF1093F400C3CF8E
:1015A00084E62ED7C0CFDC01CB01FC01E199FECF50
:1015B00006C0FFBBEEBBE09A31960DB20D924150D2
:1015C0005040B8F70895E199FECF9FBB8EBBE09ADB
:1015D00099278DB30895DC01CB0102C02D9105D070
:1015E00041505040D8F70895262FE199FECF1CBAFC
:1015F0009FBB8EBB2DBB0FB6F894E29AE19A0FBE4B
:0816000001960895F894FFCF54
:101608000101010101013296FF9632000000FFC37B
:101618008C5F37190500FFC38C5F37190500000080
:101628000000FFFFFFFF0000FFFFFF0000FF00FFBB
:06163800FF000000FFFFAF
:00000001FF
