:100000000EC028C027C026C025C024C023C022C0DF
:1000100021C020C01FC01EC01DC01CC01BC0112499
:100020001FBECFE5D1E0DEBFCDBF10E0A0E6B0E05F
:10003000EEE9FDE002C005900D92AE39B107D9F7A7
:1000400021E0AEE9B0E001C01D92A530B207E1F7B2
:1000500045D6A3C6D5CF83E087BB80E188BB089592
:1000600027E030E061E070E0482F50E0CB01022E45
:1000700002C0880F991F0A94E2F784239523892BE5
:1000800011F092E001C090E0892F806188BB9161FE
:1000900098BB2150310950F70895EAEDF0E083E173
:1000A0008E0F11928E13FDCF0895EAEDF0E091E0EE
:1000B00083E18E0F91938E13FDCF0895853F21E04C
:1000C0009207B8F1672B09F06FC08091C4008F5F71
:1000D000823018F48093C40002C01092C400809152
:1000E000C400813099F426E930E030930101209377
:1000F00000012EE830E03093B1002093B00026E8F4
:1001000030E03093C6002093C50008958EE790E05C
:10011000909301018093000186E790E09093B100F5
:100120008093B0008EE690E09093C6008093C50067
:1001300039C08536910578F0672BB1F58091FF00C5
:100140008F5F8C3008F081E08093FF006091FF00AA
:1001500082E090E026C00B9738F1672B29F580915B
:10016000D900813019F41092D90005C080910201A4
:100170008F5F8E3018F48093020105C081E0809378
:1001800002018093D9006091FF0082E090E0F7D5F2
:100190006091020181E090E0F2D56091D90080E0A9
:1001A00090E0EDD581E0089580E00895B49B03C010
:1001B0001092A20003C081E08093A2006091A2008F
:1001C000613049F48091A0009091A1000196909334
:1001D000A1008093A00080919F00861307C070E06B
:1001E0008091A0009091A10069DF01C080E0909112
:1001F000A200911108C020919F00211104C010920B
:10020000A1001092A00090939F0008954F925F92DA
:100210006F927F928F929F92AF92BF92CF92DF9216
:10022000EF92FF920F931F93CF93DF93C82F80918C
:10023000AF00813009F4F9C1962EB12C22E3E22EF1
:10024000D4E636E9F32E0C2F10E08DEE90E042E17B
:10025000A42EA80EB91409F4E7C1C83048F52091BE
:10026000000130910101200F311F8091B000909169
:10027000B100800F911FA091C500B091C6003D0153
:10028000600E711E67EC70E042EB50E0EDEEF0E0C6
:10029000D901DC90D192DC01DC90DB01DD92BD0163
:1002A000D301DC90DA01DD92AD01AE12F1CF79C15C
:1002B000CA3009F49EC0A0F4C83029F1C93009F051
:1002C00070C17090C4002DEE30E0A7ECB0E082EB7E
:1002D000482E80E0582E80E090E088248A946EC0FA
:1002E000CC3009F4F3C008F4BFC0CD3009F059C1D7
:1002F0003091C4002091620090916300809164006D
:1003000040E050E01AC17090C4002DEE30E0A7EC40
:10031000B0E092EB492E90E0592E80E090E08824E6
:100320008A94FC01E351FF4F6F01BC0169537F4F79
:10033000AC014E545F4FF1E07F120EC0F901F08224
:10034000F60116828486FC92FB0116821486F20165
:10035000F082FA0186820DC0F901E082F601168270
:10036000D487EC92FB0116821486F201E082FA0136
:10037000D683148601962F5F3F4F1196FFEF4F1AD9
:100380005F0A8630910569F60CC1F901D083F60148
:10039000118212821C92FB011182D283F20110821F
:1003A000FA01D18312822D5F3F4F03961396F3E03B
:1003B0004F0E511C8231910509F4F3C0AC01435139
:1003C0005F4F6A01BC0169537F4FAC014E545F4FD0
:1003D000E1E07E12DACFF9018082F6011182128209
:1003E0001C92FB0111828282F2011082FA01818249
:1003F000D9CF4091C40080916B0090916C005091D6
:100400006D0020E030E0413061F4F901E351FF4F2D
:100410008083F901E953FF4F9083F901EE54FF4FB8
:1004200050832F5F3F4F2231310569F720919E00A5
:1004300021110BC09F5F90936C00815080936B00E3
:100440009F3F09F0AEC081E09DC0213009F0A9C0F6
:10045000915090936C008F5F80936B008F3F09F0F9
:10046000A0C010929E009DC04091C4008091680081
:100470005091690090916A0020E030E0413061F4D1
:10048000F901E351FF4F8083F901E953FF4F508396
:10049000F901EE54FF4F90832F5F3F4F223131051A
:1004A00069F720919E00211107C09F5F90936A0019
:1004B000815080936800C4CF213009F072C0915000
:1004C00090936A008F5F80936800C8CF4091C4000A
:1004D00050916500909166008091670020E030E0C7
:1004E000413061F4F901E351FF4F5083F901E953C1
:1004F000FF4F9083F901EE54FF4F80832F5F3F4FF2
:100500002231310569F720919E00211107C09F5FBC
:100510009093660081508093670092CF213009F05C
:1005200040C09150909366008F5F8093670096CF94
:100530004F5F5F4F4231510579F03130C9F7FA0111
:10054000E351FF4F2083FA01E953FF4F9083FA01F3
:10055000EE54FF4F8083ECCF30919E00311107C0E5
:100560009F5F9093630021502093620069CF3130E8
:1005700061F48F5F809364009150909363008F3F8C
:1005800081F482E080939E000CC0323009F069CF84
:100590008150809364002F5F20936200882309F4C8
:1005A00060CF04DE813019F48093AF003EC080E05C
:1005B00057DD80E055DD80E053DD80E051DDC12C6A
:1005C000D12CF601E652FF4F81818823A1F0F6017C
:1005D000EE54FF4F6080F601E953FF4F7080F60143
:1005E000E351FF4F80808FEF3BDD862D39DD872D76
:1005F00037DD882D07C08FEF33DD80E031DD80E00F
:100600002FDD80E02DDD4FEFC41AD40A52E1C5166C
:10061000D104B9F68FEF24DD8FEF22DD8FEF20DDDF
:100620008FEF1EDDB39416CE80E0DF91CF911F9146
:100630000F91FF90EF90DF90CF90BF90AF909F9081
:100640008F907F906F905F904F9008952EDD6AE0BD
:1006500080910201DBCDFADF6AE080E0D7CDCF9355
:10066000DF93CBEDD0E0FE0181E091E08A3010F421
:10067000908301C010828F5F31968331B9F76AE0B1
:1006800080910201C3DD81E091E08A3010F418828C
:1006900001C098838F5F21968331B9F76AE080911A
:1006A0000201DF91CF91B2CD8091AD009091AE006B
:1006B00022E130E0281B390B81E090E041E0FC01B1
:1006C000E652FF4F8130910529F08217930711F010
:1006D000823111F4408301C010820196833191056B
:1006E00071F761E08091020191DD8091AD00909100
:1006F000AE0001968331910528F49093AE0080936B
:10070000AD0008951092AE001092AD0008952091B2
:10071000AB003091AC0081E090E041E0FC01E6529A
:10072000FF4F2817390710F4823111F4408301C0BC
:10073000108201968331910589F761E08091020171
:1007400065DD8091AB009091AC00019683319105FD
:1007500028F49093AC008093AB0008951092AC0005
:100760001092AB0008958091A9009091AA00EBED42
:10077000F0E08A5D904031E022E12E0FAC014E0F97
:100780005F1F41FF02C0308301C0108231962E13DB
:10079000F5CF61E08091020139DD8091A90090914F
:1007A000AA0002968330910528F49093AA008093C2
:1007B000A90008951092AA001092A90008954091EE
:1007C000A7005091A80023E130E0241B350B81E005
:1007D00090E061E0FC01E652FF4F4817590718F41A
:1007E0008217930728F08130910511F0823111F4BE
:1007F000608301C0108201968331910559F761E051
:100800008091020103DD8091A7009091A8000196DC
:100810008930910528F49093A8008093A70008954B
:100820001092A8001092A70008952091A500309181
:10083000A600EBEDF0E081E02A5D304091E0A901F7
:100840004E0F5F1F41FD04C0813011F0823111F461
:10085000908301C010828F5F3196833181F761E010
:1008600080910201D3DC8091A5009091A6000196B1
:100870008331910528F49093A6008093A5000895F4
:100880001092A6001092A50008951F93CF93DF93B6
:1008900004DCCAEDD0E011E0188B1E831D831C839D
:1008A0001B8361E080910201B1DCF7DB198B1F83B0
:1008B0001A8361E080910201A9DCEFDB8A898887D5
:1008C000898361E080910201A1DCE7DB8A89898765
:1008D000898363E08091020199DCDFDB8A898A8762
:1008E000898361E08091020191DCD7DB8A898B8763
:1008F000898361E08091020189DCCFDB8A898C8762
:10090000898361E08091020181DCC7DB88898F8760
:100910008E878D878B8361E08091020177DCBDDB60
:1009200064E080910201DF91CF911F916FCC1F9302
:10093000CF93DF93B2DBCAEDD0E011E01C831B83C1
:100940001A83198361E08091020160DCA6DB1887BD
:100950001F831E831D8361E08091020157DC9DDBB4
:100960001C871B871A87198761E0809102014EDC82
:1009700094DB188B1F871E871D8761E08091020121
:1009800045DC8BDB1A8B198B61E0809102013EDC28
:1009900084DB188B1F871E871D8761E08091020111
:1009A00035DC7BDB1C871B871A87198761E0809108
:1009B00002012CDC72DB18871F831E831D8361E01C
:1009C0008091020123DC69DB1C831B831A8319835A
:1009D00061E0809102011ADC60DB64E08091020139
:1009E000DF91CF911F9112CC60DB61E08091020119
:1009F0000DDC53DBEAEDF0E081E0828B80878183C0
:100A00006FE08091020102DC48DB64E0809102012A
:100A1000FDCB1F93CF93DF9340DBCAEDD0E011E015
:100A2000198366E080910201F1DB3FDB61E0809198
:100A30000201ECDB32DB198366E080910201E6DB28
:100A40002CDB64E080910201DF91CF911F91DECB1E
:100A50001F93CF93DF9321DBCAEDD0E011E01E8717
:100A60001D871C871B871A87198718871F831E837A
:100A70001D8361E080910201C9DB0FDB188B1F87AA
:100A80001C831B8361E080910201C0DB06DB198BB4
:100A90001A8361E080910201B9DBFFDA1A8B1983B6
:100AA00063E080910201B2DBF8DA198B1A8361E00E
:100AB00080910201ABDBF1DA188B1F871C831B834B
:100AC00061E080910201A2DBE8DA1E871D871C87A6
:100AD0001B871A87198718871F831E831D8361E070
:100AE0008091020193DBD9DA64E080910201DF9109
:100AF000CF911F918BCB1F93CF93DF93D6DA61E019
:100B00008091020183DBC9DACAEDD0E011E01A8BD3
:100B10001987198364E08091020178DBBEDA198BB2
:100B20001A8718871A8362E0809102016FDBBDDAB1
:100B30001A8A198A1A86198618861A82198261E019
:100B40008091020163DBA9DA64E080910201DF9108
:100B5000CF911F915BCB1F93CF93DF93A6DA61E018
:100B60008091020153DB99DACAEDD0E011E01A8BD3
:100B70001987198363E08091020148DB8EDA1B87B5
:100B80001A8718871A8361E0809102013FDB85DABA
:100B90001D871C8718871A8361E08091020136DB6C
:100BA0007CDA1F831E831D831C831B831A8B198B86
:100BB000188B1F871E8761E08091020127DB6DDAA9
:100BC00064E080910201DF91CF911F911FCB5DDE28
:100BD000AEDE0ADF1EDF3CDF8EDF3ADF8CDFBBDFFD
:100BE0005CDA6EE18091020111CB2091A30030917B
:100BF000A400EAEDF0E080E090E041E0BC01622377
:100C00007323672B11F0408301C010820196319647
:100C10008231910599F76AE080910201F7DA8091BB
:100C2000A3009091A40001968331910528F490933C
:100C3000A4008093A30008951092A4001092A30032
:100C400008958091610022D0809160008F5F809331
:100C500060008B3040F0809102018F5F8093020131
:100C600081E080936000809102018E3040F080919D
:100C700061008F5F8093610081E080930201809129
:100C800061008B3010F0109261000895823059F0AD
:100C900020F4813061F4DADC0895833031F084305F
:100CA00031F402DD0895D7DC0895D9DC089586304B
:100CB00049F018F4853041F42ACD873021F088308E
:100CC00019F4B3CD50CD7BCD8A3029F08B3021F093
:100CD000893019F47CCF89CFB4CF089582E090E0B9
:100CE00046D0D82F8093FF0081E090E040D0C82FFD
:100CF0008093020180E090E03AD0982F8093D90051
:100D0000DC3018F081E08093FF00CE3018F081E0F5
:100D100080930201923010F01092D90081E080930C
:100D2000C40099D98EE790E090930101809300016F
:100D300086E790E09093B1008093B0008EE690E05B
:100D40009093C6008093C5001092AF008091FF0081
:100D50009DDF9091D9009130B9F7809102018F5FAA
:100D600080930201893080F390930201EDCFE199E5
:100D7000FECF1FBA8EBBE09A99278DB30895262F18
:100D8000E199FECF1CBA1FBA8EBB2DBB0FB6F894EB
:0E0D9000E29AE19A0FBE01960895F894FFCF03
:100D9E000101FF00000000FFFF0000FF0000000047
:100DAE0000006464646400006464640000640064B1
:100DBE0064000000646400000000FFFFFFFF0000FD
:0E0DCE00FFFFFF0000FF00FFFF000000FFFF1F
:00000001FF
