:100000000EC028C027C026C025C024C023C022C0DF
:1000100021C020C01FC01EC01DC01CC01BC0112499
:100020001FBECFE5D1E0DEBFCDBF10E0A0E6B0E05F
:10003000EAE1FDE002C005900D92AE39B107D9F7B3
:1000400021E0AEE9B0E001C01D92A530B207E1F7B2
:10005000CCD561C6D5CF83E087BB80E188BB08954E
:1000600027E030E0E1E0F0E0482F50E0BF01022E51
:1000700002C0660F771F0A94E2F76423752391E0AC
:10008000672B09F490E0892F806188BB926198BB4F
:100090002150310958F70895EAEDF0E083E18E0F21
:1000A00011928E13FDCF0895EAEDF0E091E083E127
:1000B0008E0F91938E13FDCF0895853F21E0920717
:1000C000B8F1672B09F06FC08091C4008F5F823058
:1000D00018F48093C40002C01092C4008091C40040
:1000E000813099F426E930E030930101209300013A
:1000F0002EE830E03093B1002093B00026E830E0E5
:100100003093C6002093C50008958EE790E0909349
:1001100001018093000186E790E09093B100809305
:10012000B0008EE690E09093C6008093C50039C081
:100130008536910578F0672BB1F58091FF008F5FD0
:100140008C3008F081E08093FF006091FF0082E036
:1001500090E026C00B9738F1672B29F58091D900E4
:10016000813019F41092D90005C0809102018F5F8F
:100170008E3018F48093020105C081E08093020163
:100180008093D9006091FF0082E090E0B6D5609145
:10019000020181E090E0B1D56091D90080E090E06B
:1001A000ACD581E0089580E00895B49B03C010921F
:1001B000A20003C081E08093A2006091A2006130A0
:1001C00049F48091A0009091A10001969093A10024
:1001D0008093A00080919F00861307C070E08091FB
:1001E000A0009091A10069DF01C080E09091A20081
:1001F000911108C020919F00211104C01092A1000C
:100200001092A00090939F000895A0E0B0E0EAE073
:10021000F1E036C5C82F8091AF00813009F4F9C1F3
:10022000962EB12C22E3E22ED4E636E9F32E0C2FE3
:1002300010E08DEE90E042E1A42EA80EB91409F46E
:10024000E7C1C83048F52091000130910101200F2D
:10025000311F8091B0009091B100800F911FA0914B
:10026000C500B091C6003D01600E711E67EC70E0E4
:1002700042EB50E0EDEEF0E0D901DC90D192DC01F0
:10028000DC90DB01DD92BD01D301DC90DA01DD926F
:10029000AD01AE12F1CF79C1CA3009F49EC0A0F40D
:1002A000C83029F1C93009F070C17090C4002DEE3A
:1002B00030E0A7ECB0E082EB482E80E0582E80E0E2
:1002C00090E088248A946EC0CC3009F4F3C008F41E
:1002D000BFC0CD3009F059C13091C40020916200F7
:1002E000909163008091640040E050E01AC17090EA
:1002F000C4002DEE30E0A7ECB0E092EB492E90E088
:10030000592E80E090E088248A94FC01E351FF4F4D
:100310006F01BC0169537F4FAC014E545F4FF1E058
:100320007F120EC0F901F082F60116828486FC92DB
:10033000FB0116821486F201F082FA0186820DC05A
:10034000F901E082F6011682D487EC92FB01168255
:100350001486F201E082FA01D683148601962F5F9B
:100360003F4F1196FFEF4F1A5F0A8630910569F6ED
:100370000CC1F901D083F601118212821C92FB019B
:100380001182D283F2011082FA01D18312822D5F91
:100390003F4F03961396F3E04F0E511C82319105A7
:1003A00009F4F3C0AC0143515F4F6A01BC016953CA
:1003B0007F4FAC014E545F4FE1E07E12DACFF9017E
:1003C0008082F601118212821C92FB0111828282CC
:1003D000F2011082FA018182D9CF4091C40080914C
:1003E0006B0090916C0050916D0020E030E0413046
:1003F00061F4F901E351FF4F8083F901E953FF4FA5
:100400009083F901EE54FF4F50832F5F3F4F22310D
:10041000310569F720919E0021110BC09F5F9093D9
:100420006C00815080936B009F3F09F0AEC081E06B
:100430009DC0213009F0A9C0915090936C008F5F4E
:1004400080936B008F3F09F0A0C010929E009DC06A
:100450004091C400809168005091690090916A00B9
:1004600020E030E0413061F4F901E351FF4F808337
:10047000F901E953FF4F5083F901EE54FF4F908388
:100480002F5F3F4F2231310569F720919E002111E6
:1004900007C09F5F90936A00815080936800C4CF2B
:1004A000213009F072C0915090936A008F5F809361
:1004B0006800C8CF4091C4005091650090916600DB
:1004C0008091670020E030E0413061F4F901E351B0
:1004D000FF4F5083F901E953FF4F9083F901EE5428
:1004E000FF4F80832F5F3F4F2231310569F7209105
:1004F0009E00211107C09F5F9093660081508093FA
:10050000670092CF213009F040C09150909366006F
:100510008F5F8093670096CF4F5F5F4F42315105E9
:1005200079F03130C9F7FA01E351FF4F2083FA0126
:10053000E953FF4F9083FA01EE54FF4F8083ECCFD5
:1005400030919E00311107C09F5F9093630021504E
:100550002093620069CF313061F48F5F8093640033
:100560009150909363008F3F81F482E080939E00CE
:100570000CC0323009F069CF8150809364002F5F46
:1005800020936200882309F460CF0FDE813019F4D4
:100590008093AF003EC080E063DD80E061DD80E0FD
:1005A0005FDD80E05DDDC12CD12CF601E652FF4F0E
:1005B00081818823A1F0F601EE54FF4F6080F6019F
:1005C000E953FF4F7080F601E351FF4F80808FEFBA
:1005D00047DD862D45DD872D43DD882D07C08FEF54
:1005E0003FDD80E03DDD80E03BDD80E039DD4FEF49
:1005F000C41AD40A52E1C516D104B9F68FEF30DD22
:100600008FEF2EDD8FEF2CDD8FEF2ADDB39416CE2A
:1006100080E0CDB7DEB7E0E14FC346DD6AE0809110
:100620000201F3DD0895F9DF6AE080E0EEDD089570
:10063000CF93DF93CBEDD0E0FE0181E091E08A30F3
:1006400010F4908301C010828F5F31968331B9F727
:100650006AE080910201D9DD81E091E08A3010F4F6
:10066000188201C098838F5F21968331B9F76AE0C1
:1006700080910201CADDDF91CF9108958091AD0094
:100680009091AE0022E130E0281B390B81E090E030
:1006900041E0FC01E652FF4F8130910529F08217BD
:1006A000930711F0823111F4408301C0108201964A
:1006B0008331910571F761E080910201A6DD80919F
:1006C000AD009091AE0001968331910528F490938E
:1006D000AE008093AD0008951092AE001092AD0070
:1006E00008952091AB003091AC0081E090E041E0B2
:1006F000FC01E652FF4F2817390710F4823111F43C
:10070000408301C0108201968331910589F761E031
:10071000809102017ADD8091AB009091AC0001964E
:100720008331910528F49093AC008093AB00089539
:100730001092AC001092AB0008958091A9009091A6
:10074000AA00EBEDF0E08A5D904031E022E12E0F4F
:10075000AC014E0F5F1F41FF02C0308301C0108209
:1007600031962E13F5CF61E0809102014EDD80912C
:10077000A9009091AA0002968330910528F49093E5
:10078000AA008093A90008951092AA001092A900CF
:1007900008954091A7005091A80023E130E0241B68
:1007A000350B81E090E061E0FC01E652FF4F481715
:1007B000590718F48217930728F08130910511F03A
:1007C000823111F4608301C010820196833191055A
:1007D00059F761E08091020118DD8091A7009091A6
:1007E000A80001968930910528F49093A800809381
:1007F000A70008951092A8001092A70008952091D4
:10080000A5003091A600EBEDF0E081E02A5D3040DC
:1008100091E0A9014E0F5F1F41FD04C0813011F02E
:10082000823111F4908301C010828F5F3196833141
:1008300081F761E080910201E8DC8091A500909150
:10084000A60001968331910528F49093A600809329
:10085000A50008951092A6001092A5000895A1E0A9
:10086000B0E0E4E3F4E01AC2898316DCEAEDF0E0DC
:1008700091E0928B91838981682F80910201C5DC80
:100880002196E2E027C21F93CF93DF9305DCCAEDE8
:10089000D0E011E01A8B1D831C831B83198361E058
:1008A00080910201B2DCF8DB1A8B198718871F834D
:1008B0001E83198361E080910201A7DCEDDB1A8BB6
:1008C0001B871A871987198361E0809102019DDCDB
:1008D000E3DB1A8B1D871C871B87198361E08091DE
:1008E000020193DCD9DB1A8B188B1F871E871983B3
:1008F00061E08091020189DCCFDB1A8B1F871E87A4
:100900001D87198361E0809102017FDCC5DB1A8BB2
:100910001D871C87198361E08091020176DCBCDBB6
:100920001A8B1C871B87198361E0809102016DDCA3
:10093000B3DB1A8B1B871A87198361E08091020150
:1009400064DCAADB1A8B1A8719871887198361E080
:10095000809102015ADCA0DB1A8B18871F831E834B
:100960001D831C831B83198361E0809102014DDC90
:10097000DF91CF911F910895CF93DF9395DBCAED5F
:10098000D0E0188A198A1B821A8261E080910201E4
:100990003CDC8ADB1F86198A1C821A8261E0809106
:1009A000020133DC79DB81E08A8B888B8B8389833E
:1009B00064E08091020129DC77DB1F86198A1C82A2
:1009C0001A8261E08091020120DC6EDB188A198AAC
:1009D0001B821A8261E08091020117DCDF91CF91C6
:1009E0000895CF93DF9360DBCAEDD0E0198A1A82B5
:1009F00061E08091020109DC4FDB81E08A8B888B0A
:100A0000898366E08091020100DCDF91CF91089537
:100A10001F93CF93DF9348DBCAEDD0E0198A1A8287
:100A200061E080910201F1DB37DB11E01A8B1B875B
:100A30001A8719871887198361E080910201E5DB25
:100A40002BDB1A8B1C871B8718871F83198361E098
:100A500080910201DADB20DB1A8B1C871E8319834D
:100A600061E080910201D1DB17DB1A8B1D871C87A7
:100A70001E831D83198361E080910201C6DB0CDBBC
:100A80001A8B1D871D831C83198361E080910201ED
:100A9000BCDB02DB1A8B1E871D871C83198361E078
:100AA00080910201B2DBF8DA1A8B188B1F871E8740
:100AB0001C831B83198361E080910201A6DBDF9117
:100AC000CF911F910895DFDE81E0C9DE55DF81E01F
:100AD000C6DE87DF81E0C3DE9BDF81E0C0DE4CDF66
:100AE00081E0BDDED0DE85E0BADE08952091A3006E
:100AF0003091A400EAEDF0E080E090E041E0BC013C
:100B000062237323672B11F0408301C0108201968A
:100B100031968231910599F76AE08091020175DB87
:100B20008091A3009091A40001968331910528F44F
:100B30009093A4008093A30008951092A4001092B3
:100B4000A30008958091610022D0809160008F5FA2
:100B5000809360008B3040F0809102018F5F809322
:100B6000020181E080936000809102018E3040F0AC
:100B7000809161008F5F8093610081E0809302012A
:100B8000809161008B3010F01092610008958230E6
:100B900059F020F4813061F440DD0895833031F064
:100BA000843031F46BDD08953EDD089541DD089514
:100BB000863059F020F4853061F493DD0895873054
:100BC00031F0883031F41BDE0895B7DD0895E1DDA2
:100BD00008958A3031F08B3031F0893029F473DF99
:100BE000089584DF0895AEDF089582E090E07DD01F
:100BF000D82F8093FF0081E090E077D0C82F8093BA
:100C0000020180E090E071D0982F8093D900DC3011
:100C100018F081E08093FF00CE3018F081E08093DF
:100C20000201923010F01092D90081E08093C4004C
:100C300012DA8EE790E0909301018093000186E73D
:100C400090E09093B1008093B0008EE690E0909396
:100C5000C6008093C5001092AF008091FF0097DF1F
:100C60009091D9009130B9F7809102018F5F809304
:100C70000201893080F390930201EDCF2F923F92D1
:100C80004F925F926F927F928F929F92AF92BF929C
:100C9000CF92DF92EF92FF920F931F93CF93DF9348
:100CA000CDB7DEB7CA1BDB0B0FB6F894DEBF0FBEA5
:100CB000CDBF09942A88398848885F846E847D84F2
:100CC0008C849B84AA84B984C884DF80EE80FD80F4
:100CD0000C811B81AA81B981CE0FD11D0FB6F8946A
:100CE000DEBF0FBECDBFED010895E199FECF1FBA63
:100CF0008EBBE09A99278DB30895262FE199FECFF8
:100D00001CBA1FBA8EBB2DBB0FB6F894E29AE19ABB
:0A0D10000FBE01960895F894FFCF7E
:100D1A000101FF00000000FFFF0000FF00000000CB
:100D2A000000646464640000646464000064006435
:100D3A0064000000646400000000FFFFFFFF000081
:0E0D4A00FFFFFF0000FF00FFFF000000FFFFA3
:00000001FF
