:100000000EC028C027C026C025C024C023C022C0DF
:1000100021C020C01FC01EC01DC01CC01BC0112499
:100020001FBECFE5D1E0DEBFCDBF10E0A0E6B0E05F
:10003000EEE8F9E002C005900D92AC3AB107D9F7AD
:1000400020E0ACEAB0E001C01D92A13EB207E1F7AA
:10005000D5D39BC4D5CF27E030E0E1E0F0E0482FD6
:1000600050E0BF01022E02C0660F771F0A94E2F72C
:100070006423752391E0672B09F490E0892F806158
:1000800088BB926198BB2150310958F7089580E0F0
:10009000E2DF80E0E0DF80E0DEDF80E0DCDF0895AB
:1000A0008FEFD9DF8FEFD7DF8FEFD5DF8FEFD3DF84
:1000B0000895CF93DF93EC018FEFCDDF8A81CBDF03
:1000C0008981C9DF8881C7DFDF91CF910895A2E0E0
:1000D000B0E0ECE6F0E018C4082F69837A83D7DF3C
:1000E0006981E62E7A81F72E10E0101739F0F701BA
:1000F000819191917F01DDDF1F5FF7CFD1DF80E735
:1001000097E10197F1F72296E6E01AC40F931F9347
:10011000CF93DF93FA0140E050E0C1E0D0E030E05F
:10012000942F4817F0F4A091CB00B091CC000D9023
:10013000BC91A02DB183A083983078F4DE01042E09
:1001400002C0AA0FBB1F0A94E2F78D0102231323FA
:100150000A171B0711F4718360834F5F5F4F32965C
:10016000DFCFDF91CF911F910F9108950F931F93D0
:10017000CF93DF93FA0140E050E0C1E0D0E030E0FF
:10018000942F481730F5A091CB00B091CC000D9082
:10019000BC91A02DB183A0839830B8F4DE01042E69
:1001A00002C0AA0FBB1F0A94E2F78D01022313239A
:1001B0000A171B0751F4DA01AA0FBB1FA60FB71FBE
:1001C0000D90BC91A02DB183A0834F5F5F4F3296FD
:1001D000D7CFDF91CF911F910F910895853F21E0F7
:1001E000920790F0672B09F04AC08091B3008F5FAF
:1001F000823018F48093B30002C01092B300609173
:10020000B30080E090E038C08536910578F0672B28
:10021000B1F58091C9008F5F8B3008F081E0809349
:10022000C9006091C90083E090E026C00B9738F1C7
:10023000672B29F58091B400813019F41092B40035
:1002400005C08091CA008F5F803118F48093CA0086
:1002500005C081E08093CA008093B4006091C9001A
:1002600083E090E084D36091CA0082E090E07FD385
:100270006091B40081E090E07AD381E0089580E05D
:100280000895B49B03C01092AF0003C081E0809337
:10029000AF006091AF00613049F48091AD00909162
:1002A000AE0001969093AE008093AD008091AC00BB
:1002B000861307C070E08091AD009091AE008EDF94
:1002C00001C080E09091AF00911108C02091AC0076
:1002D000211104C01092AE001092AD009093AC00BA
:1002E0000895EF92FF920F931F93CF93DF93C82F40
:1002F000E62EF42E082F10E0000F111FD0E0DE15BF
:1003000009F4E6C0C83070F4E091CB00F091CC0065
:10031000E00FF11F608171812F2D4DEC50E084E0E2
:10032000F5DECDC0C93091F1E0F4C83009F055C018
:10033000E091CB00F091CC00848195819093B60040
:100340008093B500828193819093B8008093B70029
:10035000868197819093BA008093B90082859385B6
:10036000A3C0CA3021F1CB30C1F5E091CB00F091B0
:10037000CC00828193819093B6008093B5009093D6
:10038000B8008093B7008285938522C0E091CB00AE
:10039000F091CC00828193819093B6008093B50058
:1003A0009093B8008093B7008681978111C0E09147
:1003B000CB00F091CC00268137813093B60020939A
:1003C000B500828593859093B8008093B70068C08C
:1003D0009093BA008093B90067C0CD3099F1D0F402
:1003E000CC3009F065C0E091CB00F091CC00828563
:1003F00093859093B6008093B5002281338130932A
:10040000B8002093B7009093BA008093B90082811E
:1004100093814AC0CE3069F1CF3009F049C0E091F4
:10042000CB00F091CC00828193819093B6008093B1
:10043000B500868597859093B8008093B700228198
:1004400033812EC0E091CB00F091CC008285938562
:100450009093B6008093B500228133813093B80029
:100460002093B7009093BA008093B9008485958556
:100470001BC0E091CB00F091CC00868197819093D6
:10048000B6008093B500248135813093B800209365
:10049000B7009093BA008093B9008481958104C01D
:1004A0003093BA002093B9009093BC008093BB00B6
:1004B0002F2D4DEC50E065EB70E084E057DEE1DE7F
:1004C000813039F06DEC70E084E001DEDF5F17CF42
:1004D00080E0CDB7DEB7E6E033C24FE06AE080915E
:1004E000CA00FFDE08954FE06AE08091CA00F9DE9D
:1004F0004FE06AE080E0F5DE089541E063E080913E
:10050000CA00EFDE42E063E08091CA00EADE44E028
:1005100063E08091CA00E5DE48E063E08091CA00B4
:10052000E0DE08954FE062E08091CA00DADE41E04B
:1005300063E08091CA00D5DE42E063E08091CA00AA
:10054000D0DE44E063E08091CA00CBDE48E063E0A7
:100550008091CA00C6DE08954CE067E08091CA0031
:10056000C0DE43E067E08091CA00BBDE089549E049
:1005700063E08091CA00B5DE46E063E08091CA0086
:10058000B0DE44E063E08091CA00ABDE46E063E0A9
:100590008091CA00A6DE49E063E08091CA00A1DE36
:1005A000089540E063E08091CA009BDE43E063E091
:1005B0008091CA0096DE47E063E08091CA0091DE38
:1005C0004EE063E08091CA008CDE47E063E08091FA
:1005D000CA0087DE43E063E08091CA0082DE40E02B
:1005E00063E08091CA007DDE40E063E08091CA0054
:1005F00078DE4CE062E08091CA0073DE4EE063E09A
:100600008091CA006EDE47E063E08091CA0069DE37
:100610004EE063E08091CA0064DE4CE062E08091CD
:10062000CA005FDE40E063E08091CA005ADE0895B0
:10063000CF93C1E04C2F63E08091CA0052DE81115C
:1006400003C0CF5FCA30B1F7CF9108954AE061E0AF
:100650008091CA0046DE45E061E08091CA0041DE3B
:1006600040E062E08091CA003CDE47E061E08091BA
:10067000CA0037DE48E061E08091CA0032DE47E020
:1006800061E08091CA002DDE40E062E08091CA0006
:1006900028DE4FE061E08091CA0023DE4BE061E09C
:1006A0008091CA001EDE40E062E08091CA0019DE3F
:1006B00044E061E08091CA0014DE4FE061E0809187
:1006C000CA000FDE44E061E08091CA000ADE40E02B
:1006D00062E08091CA0005DE46E061E08091CA00D8
:1006E00000DE49E061E08091CA00FBDD46E061E0A8
:1006F0008091CA00F6DD40E062E08091CA00F1DD41
:100700004FE061E08091CA00ECDD4CE061E0809157
:10071000CA00E7DD40E062E08091CA00E2DD46E029
:1007200061E08091CA00DDDD49E061E08091CA00AE
:10073000D8DD46E061E08091CA00D3DD40E062E0B0
:100740008091CA00CEDD4FE061E08091CA00C9DD32
:100750004CE061E08091CA00C4DD40E062E080913D
:10076000CA00BFDD4FE061E08091CA00BADD41E020
:1007700061E08091CA00B5DD40E064E08091CA008C
:10078000B0DD089580916100823031F0833031F026
:10079000813029F4A2DE03C0A6DE01C0AEDE809166
:1007A0006100853031F0863031F0843029F4BADED2
:1007B00003C0D2DE01C0DBDE809160008F5F8093DA
:1007C00060008B3040F08091CA008F5F8093CA0038
:1007D00081E0809360008091CA00803140F0809178
:1007E00061008F5F8093610081E08093CA008091F7
:1007F0006100873010F010926100089583E090E06E
:10080000AED0182F8093C90082E090E0A8D0D82FF6
:100810008093CA0081E090E0A2D0C82F8093B400FA
:1008200080E090E09CD0982F8093B3001B3018F0AC
:1008300081E08093C900D03118F081E08093CA0034
:10084000C23010F01092B400923018F081E0809322
:10085000B3008FEF87BB18BAC2E6D0E007E810E01C
:100860008091C900823031F0833031F0813029F439
:1008700034DE03C038DE01C040DE8091C90085301F
:1008800031F0863031F0843029F44CDE03C064DE70
:1008900001C06DDE8091C900883069F020F4873096
:1008A00059F47FDE09C0893021F08A3029F46ADFEB
:1008B00003C0CCDE01C0BCDE9091B400913051F495
:1008C0008091CA008F5F803118F48093CA0002C003
:1008D0009093CA008091B300813029F41093CC002A
:1008E0000093CB00BDCFD093CC00C093CB00B8CF4A
:1008F0002F923F924F925F926F927F928F929F9230
:10090000AF92BF92CF92DF92EF92FF920F931F931D
:10091000CF93DF93CDB7DEB7CA1BDB0B0FB6F894CE
:10092000DEBF0FBECDBF09942A88398848885F840E
:100930006E847D848C849B84AA84B984C884DF807F
:10094000EE80FD800C811B81AA81B981CE0FD11D63
:100950000FB6F894DEBF0FBECDBFED010895E1994B
:10096000FECF1FBA8EBBE09A99278DB30895262F2C
:10097000E199FECF1CBA1FBA8EBB2DBB0FB6F894FF
:0E098000E29AE19A0FBE01960895F894FFCF17
:10098E000101B00084007B00810078007E007500BC
:10099E0072003C3C3C3C003C003C3C3C3C000000BB
:1009AE00FF003C003C0000B000A900A000A6009D86
:1009BE0000A3009A009700FFFFFFFF00FF00FFFF5C
:0C09CE00FFFF000000FF00FF00FF000022
:00000001FF
