:100000000EC028C027C026C025C024C023C022C0DF
:1000100021C020C01FC01EC01DC01CC01BC0112499
:100020001FBECFE5D1E0DEBFCDBF10E0A0E6B0E05F
:10003000E4E9FBE002C005900D92AC3AB107D9F7B4
:1000400020E0ACEAB0E001C01D92A33EB207E1F7A8
:10005000FFD49EC5D5CF27E030E0E1E0F0E0482FA7
:1000600050E0BF01022E02C0660F771F0A94E2F72C
:100070006423752391E0672B09F490E0892F806158
:1000800088BB926198BB2150310958F7089580E0F0
:10009000E2DF80E0E0DF80E0DEDF80E0DCDF0895AB
:1000A0008FEFD9DF8FEFD7DF8FEFD5DF8FEFD3DF84
:1000B0000895CF93DF93EC018FEFCDDF8A81CBDF03
:1000C0008981C9DF8881C7DFDF91CF910895A2E0E0
:1000D000B0E0ECE6F0E01BC5082F69837A83D7DF38
:1000E0006981E62E7A81F72E10E0101739F0F701BA
:1000F000819191917F01DDDF1F5FF7CFD1DF88EB29
:100100009BE00197F1F72296E6E01DC50F931F9340
:10011000CF93DF93FA0140E050E0C1E0D0E030E05F
:10012000942F4817F0F4A091CD00B091CE000D901F
:10013000BC91A02DB183A083983078F4DE01042E09
:1001400002C0AA0FBB1F0A94E2F78D0102231323FA
:100150000A171B0711F4718360834F5F5F4F32965C
:10016000DFCFDF91CF911F910F9108950F931F93D0
:10017000CF93DF93FA0140E050E0C1E0D0E030E0FF
:10018000942F481730F5A091CD00B091CE000D907E
:10019000BC91A02DB183A0839830B8F4DE01042E69
:1001A00002C0AA0FBB1F0A94E2F78D01022313239A
:1001B0000A171B0751F4DA01AA0FBB1FA60FB71FBE
:1001C0000D90BC91A02DB183A0834F5F5F4F3296FD
:1001D000D7CFDF91CF911F910F910895853F21E0F7
:1001E000920790F0672B09F04AC08091B5008F5FAD
:1001F000823018F48093B50002C01092B50060916F
:10020000B50080E090E038C08536910578F0672B26
:10021000B1F58091CB008F5F8F3008F081E0809343
:10022000CB006091CB0083E090E026C00B9738F1C3
:10023000672B29F58091B600813019F41092B60031
:1002400005C08091CC008F5F8C3018F48093CC0077
:1002500005C081E08093CC008093B6006091CB0014
:1002600083E090E087D46091CC0082E090E082D47B
:100270006091B60081E090E07DD481E0089580E057
:100280000895B49B03C01092AF0003C081E0809337
:10029000AF006091AF00613049F48091AD00909162
:1002A000AE0001969093AE008093AD008091AC00BB
:1002B000861307C070E08091AD009091AE008EDF94
:1002C00001C080E09091AF00911108C02091AC0076
:1002D000211104C01092AE001092AD009093AC00BA
:1002E0000895EF92FF920F931F93CF93DF93C82F40
:1002F0008091B100813009F4E3C0D42FF62E0C2F89
:1003000010E0000F111FE12CEF1409F4D8C0C83021
:1003100070F4E091CD00F091CE00E00FF11F60810C
:1003200071812D2F4FEC50E088E0F0DEBCC0C93069
:1003300009F457C0A8F4C83009F0AEC0E091CD0070
:10034000F091CE00868597859093B8008093B70092
:10035000DF01129689EB90E0AF01405F5F4F37C03D
:10036000CA3009F467C0CB3009F096C0E091CD00E7
:10037000F091CE00828193819093B8008093B70072
:10038000868197819093BA008093B900828193818E
:100390009093BC008093BB00828593859093BE00B0
:1003A0008093BD00828193819093C0008093BF00B1
:1003B000868197819093C2008093C100828193814E
:1003C0009093C4008093C3008285938561C02D9172
:1003D0003D91FC0121933193CF01A417B507B9F7E3
:1003E0005BC0E091CD00F091CE008281938190932B
:1003F000B8008093B7009093BA008093B9008281CF
:1004000093819093BC008093BB00828593859093E9
:10041000BE008093BD009093C0008093BF0086858E
:1004200097859093C2008093C1009093C4008093FD
:10043000C3002EC0E091CD00F091CE008281938167
:100440009093B8008093B7009093BA008093B9005E
:10045000828193819093BC008093BB0082819381C1
:100460009093BE008093BD00868197819093C000D9
:100470008093BF00868197819093C2008093C100D2
:10048000868197819093C4008093C3008681978171
:100490009093C6008093C5002D2F4FEC50E067EB82
:1004A00070E088E063DEEDDE813019F48093B10006
:1004B00007C06FEC70E088E00ADEE39425CF80E0AF
:1004C000CDB7DEB7E6E03FC34FEF6AE08091CC00E6
:1004D00008DF08954FEF66E08091CC0002DF4FEF18
:1004E00066E080E0FEDE08954FE066E08091CC009B
:1004F000F8DE40EF66E08091CC00F3DE089541E045
:1005000063E08091CC00EDDE42E063E08091CC00BE
:10051000E8DE44E063E08091CC00E3DE48E063E0A5
:100520008091CC00DEDE40E163E08091CC00D9DE3A
:1005300040E263E08091CC00D4DE40E463E080914F
:10054000CC00CFDE4FEF62E08091CC00CADE089590
:1005500040E063E080E0C5DE48E163E08091CC00EC
:10056000C0DE44E263E08091CC00BBDE46E663E09F
:100570008091CC00B6DE49E966E08091CC00B1DE26
:1005800046E663E08091CC00ACDE44E263E080911B
:10059000CC00A7DE48E163E08091CC00A2DE0895A4
:1005A0004CE36CE08091CC009CDE48E163E08091FC
:1005B000CC0097DE4EE763E08091CC0092DE47EE00
:1005C00063E08091CC008DDE43EC69E08091CC004B
:1005D00088DE47EE63E08091CC0083DE4EE763E087
:1005E0008091CC007EDE48E163E08091CC0079DE32
:1005F000089542E063E08091CC0073DE41E063E067
:100600008091CC006EDE46E863E08091CC0069DE2C
:1006100048E463E08091CC0064DE4EE769E08091BD
:10062000CC005FDE44E163E08091CC005ADE44E31D
:1006300063E08091CC0055DE42E463E08091CC0021
:1006400050DE41E266E08091CC004BDE42E263E0A6
:100650008091CC0046DE42E563E08091CC0041DE33
:100660004CE463E08091CC003CDE44E863E08091A0
:10067000CC0037DE48E463E08091CC0032DE4CE809
:1006800063E08091CC002DDE42E863E08091CC00F5
:1006900028DE42E063E08091CC0023DE089540E054
:1006A00063E08091CC001DDE40E663E08091CC00E9
:1006B00018DE4CE763E08091CC0013DE4EE163E08E
:1006C0008091CC000EDE4FE363E08091CC0009DE28
:1006D0004FEF63E08091CC0004DE4FE363E0809154
:1006E000CC00FFDD4EE163E08091CC00FADD4CE709
:1006F00063E08091CC00F5DD40E663E08091CC00C2
:10070000F0DD089540E066E08091CC00EADD40EE47
:1007100066E08091CC00E5DD44EE63E08091CC00A2
:10072000E0DD48E166E08091CC00DBDD47E263E09C
:100730008091CC00D6DD47E066E08091CC00D1DD31
:10074000089540E063E08091CC00CBDD40E663E0BB
:100750008091CC00C6DD40E863E08091CC00C1DD33
:100760004DE863E08091CC00BCDD40E963E080911E
:10077000CC00B7DD40E663E08091CC00B2DD40E024
:1007800063E08091CC00ADDD4DEF63E08091CC0063
:10079000A8DD089540E063E08091CC00A2DD40E751
:1007A00063E08091CC009DDD48EF63E08091CC0058
:1007B00098DD4CEF63E08091CC0093DD4EE763E081
:1007C0008091CC008EDD4FE063E08091CC0089DD2C
:1007D0004EE763E08091CC0084DD4CEF63E08091D4
:1007E000CC007FDD48EF63E08091CC007ADD40E70C
:1007F00063E08091CC0075DD08954091B00081E008
:10080000840F8093B00063E08091CC006ADD08958E
:1008100040E361E08091CC0064DD49E462E08091D6
:10082000CC005FDD46E061E08091CC005ADD40E025
:1008300062E08091CC0055DD40E761E08091CC0022
:1008400050DD4CE061E08091CC004BDD43E061E0A5
:100850008091CC0046DD4CE061E08091CC0041DD30
:1008600040E761E08091CC003CDD40E062E08091B7
:10087000CC0037DD4FE761E08091CC0032DD49E408
:1008800063E08091CC002DDD40E062E08091CC00FF
:1008900028DD40E462E08091CC0023DD4FE761E099
:1008A0008091CC001EDD40E462E08091CC0019DD37
:1008B00040E062E08091CC0014DD4EE361E0809185
:1008C000CC000FDD41E462E08091CC000ADD4EE314
:1008D00061E08091CC0005DD40E062E08091CC00D9
:1008E00000DD4FE761E08091CC00FBDC49E462E091
:1008F0008091CC00F6DC46E361E08091CC00F1DC35
:1009000040E062E08091CC00ECDC4EE361E080915D
:10091000CC00E7DC41E462E08091CC00E2DC4EE315
:1009200061E08091CC00DDDC40E062E08091CC00B1
:10093000D8DC4FE761E08091CC00D3DC49E462E091
:100940008091CC00CEDC46E361E08091CC00C9DC34
:1009500040E062E08091CC00C4DC4FE761E0809130
:10096000CC00BFDC48E461E08091CC00BADC44E418
:1009700061E08091CC00B5DC43E361E08091CC0084
:10098000B0DC40E065E08091CC00ABDC0895809164
:10099000610022D0809160008F5F809360008B3077
:1009A00040F08091CC008F5F8093CC0081E08093F9
:1009B00060008091CC008C3040F0809161008F5FAE
:1009C0008093610081E08093CC00809161008E3043
:1009D00010F0109261000895823031F0833031F0D0
:1009E000813031F471DD089575DD08957DDD089560
:1009F000853031F0863031F0843031F480DD089577
:100A0000A7DD0895CDDD0895883059F020F48730B2
:100A100061F4EFDD0895893031F08A3031F491DEF0
:100A200008953DDE08956EDE08958C3069F018F467
:100A30008B3041F008958D3019F08E3039F00895E3
:100A4000E7DE0895A7DE0895D8DE0895A0DF0895B3
:100A500083E090E087D0182F8093CB0082E090E075
:100A600081D0D82F8093CC0081E090E07BD0C82F3C
:100A70008093B60080E090E075D0982F8093B50009
:100A80001F3018F081E08093CB00DC3018F081E05B
:100A90008093CC00C23010F01092B600923018F063
:100AA00081E08093B5008FEF87BB18BAC2E6D0E033
:100AB00007E810E01092B1008091CB008DDF90919B
:100AC000B600913051F48091CC008F5F8C3018F4D7
:100AD0008093CC0002C09093CC008091B50081300F
:100AE00029F41093CE000093CD00E4CFD093CE0034
:100AF000C093CD00DFCF2F923F924F925F926F92C3
:100B00007F928F929F92AF92BF92CF92DF92EF929D
:100B1000FF920F931F93CF93DF93CDB7DEB7CA1B1E
:100B2000DB0B0FB6F894DEBF0FBECDBF09942A8849
:100B3000398848885F846E847D848C849B84AA84F1
:100B4000B984C884DF80EE80FD800C811B81AA817E
:100B5000B981CE0FD11D0FB6F894DEBF0FBECDBF49
:100B6000ED010895E199FECF1FBA8EBBE09A992757
:100B70008DB30895262FE199FECF1CBA1FBA8EBB04
:100B80002DBB0FB6F894E29AE19A0FBE0196089534
:040B9000F894FFCF07
:100B94000101B20084007B00810078007E007500B2
:100BA40072003C3C3C3C003C003C3C3C3C000000B3
:100BB400FF003C003C0000B200A900A000A6009D7C
:100BC40000A3009A009700FFFFFFFF00FF00FFFF54
:0C0BD400FFFF000000FF00FF00FF00001A
:00000001FF
