:100000000EC028C06FC026C025C024C023C022C097
:1000100021C020C01FC01EC01DC01CC01BC0112499
:100020001FBECFE5D1E0DEBFCDBF10E0A0E6B0E05F
:10003000ECE4FAE002C005900D92A638B107D9F7BA
:1000400020E0A6E8B0E001C01D92AE3BB207E1F7A8
:1000500061D4FAC4D5CF87E087BB84E188BB08951B
:1000600027E030E0E1E0F0E0482F50E0BF01022E51
:1000700002C0660F771F0A94E2F76423752391E0AC
:10008000672B09F490E0892F846188BB966198BB47
:100090002150310958F708958091BA008E3018F038
:1000A00081E08093BA0080919C00883018F086E04F
:1000B00080939C00089582E090E0B0D48093BA00D1
:1000C00081E090E0ABD480939C00E6DF08956091DE
:1000D000BA0082E090E0AAD460919C0081E090E0B8
:1000E000A5D408951F920F920FB60F9211242F934B
:1000F0003F934F935F936F937F938F939F93AF93B0
:10010000BF93EF93FF93F894C7DFA5DF96B385E61F
:1001100020E23EE494FD0DC096B3F9013197F1F76A
:100120008150C1F781E080939D0084E18093BD0000
:1001300006C080E197E20197F1F710929D00FF91D0
:10014000EF91BF91AF919F918F917F916F915F914F
:100150004F913F912F910F900FBE0F901F901895C8
:10016000893E23E0920750F08EE08093BD00672B1C
:1001700011F080E0089510929D0014C0853691051D
:10018000A8F08DE08093BD00672B99F780919C00CB
:100190008F5F883008F081E080939C0081E080933D
:1001A000BA007ADF94DF1092BD000EC00F9708F3FB
:1001B000672BF9F68091BA008F5F8E3008F081E0EE
:1001C0008093BA0069DF83DF81E00895B49B03C0A8
:1001D0001092900003C081E08093900060919000A5
:1001E000613049F480918E0090918F000196909338
:1001F0008F0080938E0080918D00861307C070E081
:1002000080918E0090918F00ABDF01C080E09091D3
:100210009000911108C020918D00211104C010920E
:100220008F0010928E0090938D000895CF93C82F69
:1002300080E016DF80E014DF80E012DF80E010DF76
:10024000CE30E9F0C431A1F1CD3009F054C08FEFC8
:1002500007DF8AE005DF80E003DF80E001DF8FEF6A
:10026000FFDE8AE0FDDE80E0FBDE80E0F9DE8FEF7E
:10027000F7DE8AE0F5DE80E0F3DE80E017C08FEF86
:10028000EFDE80E0EDDE8AE0EBDE8AE0E9DE8FEF94
:10029000E7DE80E0E5DE8AE0E3DE8AE0E1DE8FEFA4
:1002A000DFDE80E0DDDE8AE0DBDE8AE0D9DE23C04F
:1002B0008FEFD6DE80E0D4DE80E0D2DE8AE0D0DED2
:1002C0008FEFCEDE80E0CCDE8AE0CADE80E0C8DEE2
:1002D0008FEFC6DE8AE0C4DE80E0C2DE80E0C0DEF2
:1002E00088E99AE328EC30E0F9013197F1F70197BA
:1002F000D9F71092BD008FEFB3DE8FEFB1DE8FEF35
:10030000AFDE8FEFADDE62DFCF910895E9EAF0E076
:1003100089E08E0F11928E13FDCF0895E9EAF0E087
:1003200091E089E08E0F91938E13FDCF0895A0E0A8
:10033000B0E0ECE9F1E03FC3C82F8091910081303B
:1003400009F4BDC1B62E00E0DCE31FEFDD24D39439
:10035000EC2EF12C82EB90E098E0C92EC80E0B1524
:1003600009F4ACC1C83048F52091BB003091BC0005
:100370002E0D3F1D80919200909193008E0D9F1D38
:10038000A0919E00B0919F004D018E0C9F1C60EAD1
:1003900070E044E950E0E2EBF0E0D901AC90A192CA
:1003A000DC01AC90DB01AD92BD01D401AC90DA016F
:1003B000AD92AD01CE12F1CF3EC1C93049F1CA3084
:1003C00009F44EC0C83009F07DC030919D0082EB29
:1003D00090E0A0EAB0E044E950E02EEFFC013130BB
:1003E00039F4243010F0108301C010821C9306C031
:1003F000243010F0D08301C01082DC93FA01108207
:10040000019611964F5F5F4F2F5F263039F713C16A
:1004100030919D0082EB90E0A0EAB0E044E950E02A
:100420002EEFFC01313049F4243010F0108308C065
:1004300010821C92FA0110830BC0243028F0D08364
:100440001C92FA01108204C010821C92FA01D0831F
:10045000019611964F5F5F4F2F5F263011F7EBC06B
:1004600040919D0080916B0090916C0050916D00C7
:1004700020E030E0413061F4F901EE54FF4F808319
:10048000F901E056FF4F9083F901EC56FF4F50837E
:100490002F5F3F4F2830310569F720918C002111E3
:1004A00007C09F5F90936C00815080936B003AC0AF
:1004B000213009F0C0C0915090936C008F5F809301
:1004C0006B003FC0CC3009F442C0CD3009F471C09C
:1004D000CB3009F0B0C040919D00809168005091F0
:1004E000690090916A0020E030E0413061F4F90148
:1004F000EE54FF4F8083F901E056FF4F5083F9011E
:10050000EC56FF4F90832F5F3F4F2830310569F73E
:1005100020918C0021110CC09F5F90936A00815044
:10052000809368009F3F09F086C0D0928C0083C002
:10053000213009F080C0915090936A008F5F8093C2
:1005400068008F3F09F077C010928C0074C0409112
:100550009D0050916500909166008091670020E0B9
:1005600030E0413061F4F901EE54FF4F5083F9015E
:10057000E056FF4F9083F901EC56FF4F80832F5FC9
:100580003F4F2830310569F720918C00211107C0B9
:100590009F5F90936600815080936700C3CF2130A6
:1005A00009F049C09150909366008F5F8093670077
:1005B000C8CF30919D00209162009091630080919E
:1005C000640040E050E0313061F4FA01EE54FF4F36
:1005D0002083FA01E056FF4F9083FA01EC56FF4F5B
:1005E00080834F5F5F4F4830510569F730918C0031
:1005F000311107C09F5F90936300215020936200E8
:1006000091CF313061F48F5F80936400915090936B
:1006100063008F3F81F482E080938C000CC0323005
:1006200009F092CF8150809364002F5F2093620085
:10063000882309F489CFCADD813019F480939100B1
:100640003EC080E00DDD80E00BDD80E009DD80E074
:1006500007DD812C912CF401E755FF4F8181882320
:10066000A1F0F401EC56FF4F6080F401E056FF4F1B
:100670007080F401EE54FF4FA0808FEFF1DC862DE7
:10068000EFDC872DEDDC8A2D07C08FEFE9DC80E001
:10069000E7DC80E0E5DC80E0E3DCFFEF8F1A9F0A17
:1006A00088E088169104B9F68FEFDADC8FEFD8DC9A
:1006B0008FEFD6DC8FEFD4DC0F5F51CE80E0CDB76B
:1006C000DEB7EEE094C12ADE6CE88091BA002FDE3E
:1006D0000895F9DF6CE880E02ADE08951FDE6CE8FB
:1006E0008091BA0024DEE9EAF0E0108617821282D7
:1006F00011826CE88091BA001ADE0895CF93DF93DF
:10070000D4E0C1E00BDEC093B100C093B000C09351
:10071000AB00C093AA006FE08091BA0008DEF6DD5E
:10072000C093B100C093B000C093AB00C093AA00C7
:100730006FE08091BA00FBDDD15021F7C4E0EEDD1F
:100740001092B1001092B0001092AB001092AA006B
:100750006FE08091BA00EBDDD9DD1092B10010920C
:10076000B0001092AB001092AA006FE08091BA0026
:10077000DEDDC15021F7DF91CF91089580918A008D
:1007800090918B0048E050E0481B590B9C012F5F73
:100790003F4F81E090E061E0FC01E755FF4F813081
:1007A000910541F08417950729F08217930711F0FE
:1007B000883011F4608301C0108201968930910560
:1007C00059F76CE38091BA00B2DD80918A00909174
:1007D0008B0001968930910528F490938B008093CB
:1007E0008A00089510928B0010928A00089540911B
:1007F00060005091610081E090E031E0FC01E7553C
:10080000FF4F8417950721F0813011F0883011F4E3
:10081000308301C0108201968930910579F76CE32D
:100820008091BA0084DD2091880030918900809108
:10083000600090916100232B71F401969093610008
:1008400080936000089791F481E090E09093890094
:1008500080938800089501979093610080936000D1
:10086000019721F410928900109288000895409118
:1008700086005091870029E030E0241B350B81E091
:1008800090E061E0FC01E755FF4F4817590718F465
:100890008217930728F08130910511F0883011F408
:1008A000608301C0108201968930910559F76CE38D
:1008B0008091BA003CDD809186009091870001967E
:1008C0008530910528F490938700809386000895E1
:1008D00010928700109286000895823059F020F41B
:1008E000813061F4F0DE0895833031F0843031F4EA
:1008F00005DF0895EEDE0895F1DE0895863031F0CB
:10090000873031F0853029F439DF089570DF08959C
:10091000AEDF0895D0DBC0DB1092BD001092A800BE
:100920009ADBF8948EE790E09093BC008093BB0034
:1009300086E790E090939300809392008EE690E09B
:1009400090939F0080939E00C0E1D0E210929100AE
:10095000F89480919D00811113C061E0E8DC17BA22
:10096000C8BB85B7877E806185BF85B7806285BF3C
:10097000DBBFC5BB7894889585B78F7D85BF09C0DF
:100980008091BD00811104C080919C00A6DF01C050
:100990004DDC9091A8009130C9F68091BA008F5F2C
:1009A0008093BA00873090F29093BA00CFCF2F9205
:1009B0003F924F925F926F927F928F929F92AF92EF
:1009C000BF92CF92DF92EF92FF920F931F93CF933C
:1009D000DF93CDB7DEB7CA1BDB0B0FB6F894DEBFD3
:1009E0000FBECDBF09942A88398848885F846E84F9
:1009F0007D848C849B84AA84B984C884DF80EE8043
:100A0000FD800C811B81AA81B981CE0FD11D0FB64B
:100A1000F894DEBF0FBECDBFED010895E199FECF82
:100A20001FBA8EBBE09A99278DB30895262FE199BE
:100A3000FECF1CBA1FBA8EBB2DBB0FB6F894E29A3C
:0C0A4000E19A0FBE01960895F894FFCFD4
:100A4C000100FF00000000FFFF0000FF000000009D
:100A5C000000646464640000646464000064006406
:060A6C0064000000646458
:00000001FF
