:100000001AC034C079C032C031C030C02FC02EC039
:100010002DC02CC02BC02AC029C028C027C0BCC1FD
:1000200083C105C222C13FC197C101C200C2FFC145
:10003000FEC1D2C159C111241FBECFE5D1E0DEBF40
:10004000CDBF10E0A0E6B0E0EAE2FBE002C0059020
:100050000D92A638B107D9F720E0A6E8B0E001C0BC
:100060001D92AE3BB207E1F7FBD45DC5C9CF87E077
:1000700087BB84E188BB089527E030E0E1E0F0E051
:10008000482F50E0BF01022E02C0660F771F0A946E
:10009000E2F76423752391E0672B09F490E0892F40
:1000A000846188BB966198BB2150310958F7089547
:1000B0008091BA008E3018F081E08093BA00809170
:1000C0009C00883018F086E080939C00089582E0C0
:1000D00090E013D58093BA0081E090E00ED5809334
:1000E0009C00E6CF6091BA0082E090E00ED560916E
:1000F0009C0081E090E009C51F920F920FB60F920D
:1001000011242F933F934F935F936F937F938F931C
:100110009F93AF93BF93EF93FF93F894C9DFA7DF4B
:1001200096B385E694FD10C096B3EFE9FFE03197F2
:10013000F1F700C000008150A9F781E080939D0095
:1001400084E18093BD0008C08FE097E20197F1F74A
:1001500000C0000010929D00FF91EF91BF91AF9100
:100160009F918F917F916F915F914F913F912F91CF
:100170000F900FBE0F901F901895893E23E09207B5
:1001800050F08EE08093BD00672B11F080E0089561
:1001900010929D0011C08536910590F08DE08093FE
:1001A000BD00672B99F780919C008F5F883008F025
:1001B00081E080939C007CDF95DF1092BD000EC033
:1001C0000F9720F3672B11F78091BA008F5F8E3065
:1001D00008F081E08093BA006BDF84DF81E008954E
:1001E000B49B03C01092900003C081E08093900004
:1001F00060919000613049F480918E0090918F0061
:10020000019690938F0080938E0080918D008613CD
:1002100007C070E080918E0090918F00AEDF01C02A
:1002200080E090919000911108C020918D002111E3
:1002300004C010928F0010928E0090938D0008954C
:10024000CF93C82F80E018DF80E016DF80E014DF56
:1002500080E012DF8C2F90E0FC013A97EC30F10542
:1002600008F0E5C0E15FFF4F09948FEF05DF8AE0FA
:1002700003DF80E001DF80E0FFDE8FEFFDDE8AE05C
:10028000FBDE80E0F9DE80E0F7DE8FEFF5DE8AE06E
:10029000F3DE80E0F1DE80E0EFDE8FEFEDDE8AE07E
:1002A000EBDE80E03EC08FEFE7DE80E0E5DE87E05A
:1002B000E3DE87E0E1DE8FEFDFDE80E0DDDE87E09A
:1002C000DBDE87E0D9DE8FEFD7DE80E0D5DE87E0AA
:1002D000D3DE87E0D1DE8FEFCFDE80E0CDDE87E0BA
:1002E000CBDE87E0C9DEA3C08FEFC6DE80E0C4DED0
:1002F00080E0C2DE8AE0C0DE8FEFBEDE80E0BCDEE2
:100300008AE0BADE80E0B8DE8FEFB6DE80E0B4DEF1
:1003100080E0B2DE8AE0B0DE8FEFAEDE80E0ACDE01
:100320008AE0AADE80E0DECF8FEFA6DE80E0A4DEEA
:100330008AE0A2DE80E0A0DE8FEF9EDE80E09CDE21
:100340008AE09ADE80E098DE8FEF96DE80E094DE31
:100350008AE092DE80E0DFCF8FEF8EDE84E08CDEFD
:1003600084E08ADE84E088DE8FEF86DE84E084DE4F
:1003700084E082DE84E080DE8FEF7EDE84E07CDE5F
:1003800084E07ADE84E078DE8FEF76DE84E074DE6F
:1003900084E072DE84E0A6CF8FEF6EDE80E06CDE5C
:1003A00080E06ADE8AE068DE8FEF66DE80E064DE91
:1003B00080E062DE8AE060DE8FEF5EDE80E05CDEA1
:1003C00080E05ADE8AE058DE8FEF56DE80E054DEB1
:1003D00080E052DE8AE086CF8FEF4EDE80E04CDE9A
:1003E00080E04ADE8AE048DE8FEF46DE80E044DED1
:1003F0008AE042DE80E040DE8FEF3EDE80E03CDEE1
:100400008AE03ADE80E038DE8FEF36DE8AE034DEE6
:1004100080E032DE80E030DE2FEF8EE994E2215082
:1004200080409040E1F700C000001092BD008FEFC7
:1004300023DE8FEF21DE8FEF1FDE8FEF1DDECF91EA
:10044000CFCEE9EAF0E089E08E0F11928E13FDCF56
:100450000895E9EAF0E091E089E08E0F91938E1320
:10046000FDCF08956F927F928F929F92AF92BF922D
:10047000CF92DF92EF92FF920F931F93CF93DF9370
:10048000C82F80919100813009F4BDC1B62E00E0E3
:10049000D4E110E5DD24D394EC2EF12C82EB90E036
:1004A00098E0C92EC80E0B1509F4ACC1C83048F548
:1004B0002091BB003091BC002E0D3F1D8091920019
:1004C000909193008E0D9F1DA0919E00B0919F0072
:1004D0004D018E0C9F1C60EA70E044E950E0E2EBB5
:1004E000F0E0D901AC90A192DC01AC90DB01AD92BF
:1004F000BD01D401AC90DA01AD92AD01CE12F1CFC5
:100500003EC1C93049F1CA3009F44EC0C83009F0C3
:100510007DC030919D0082EB90E0A0EAB0E044E91C
:1005200050E02EEFFC01313039F4243010F010830C
:1005300001C010821C9306C0243010F0D08301C08B
:100540001082DC93FA011082019611964F5F5F4F83
:100550002F5F263039F713C130919D0082EB90E078
:10056000A0EAB0E044E950E02EEFFC01313049F45C
:10057000243010F0108308C010821C92FA011083FE
:100580000BC0243028F0D0831C92FA01108204C0E2
:1005900010821C92FA01D083019611964F5F5F4F33
:1005A0002F5F263011F7EBC040919D0080916B00CA
:1005B00090916C0050916D0020E030E0413061F48A
:1005C000F901EE54FF4F8083F901E056FF4F90830D
:1005D000F901EC56FF4F50832F5F3F4F2830310514
:1005E00069F720918C00211107C09F5F90936C00E8
:1005F000815080936B003AC0213009F0C0C0915007
:1006000090936C008F5F80936B003FC0CC3009F4F7
:1006100042C0CD3009F471C0CB3009F0B0C0409178
:100620009D00809168005091690090916A0020E0DF
:1006300030E0413061F4F901EE54FF4F8083F9015D
:10064000E056FF4F5083F901EC56FF4F90832F5F28
:100650003F4F2830310569F720918C0021110CC0E3
:100660009F5F90936A008150809368009F3F09F0DC
:1006700086C0D0928C0083C0213009F080C0915098
:1006800090936A008F5F809368008F3F09F077C076
:1006900010928C0074C040919D0050916500909123
:1006A00066008091670020E030E0413061F4F9019C
:1006B000EE54FF4F5083F901E056FF4F9083F9014C
:1006C000EC56FF4F80832F5F3F4F2830310569F78D
:1006D00020918C00211107C09F5F9093660081508C
:1006E00080936700C3CF213009F049C091509093A7
:1006F00066008F5F80936700C8CF30919D00209186
:100700006200909163008091640040E050E03130DD
:1007100061F4FA01EE54FF4F2083FA01E056FF4FD7
:100720009083FA01EC56FF4F80834F5F5F4F483054
:10073000510569F730918C00311107C09F5F90938C
:10074000630021502093620091CF313061F48F5FBC
:10075000809364009150909363008F3F81F482E016
:1007600080938C000CC0323009F092CF815080937E
:1007700064002F5F20936200882309F489CF30DD65
:10078000813019F4809391003EC080E075DC80E0F8
:1007900073DC80E071DC80E06FDC812C912CF40153
:1007A000E755FF4F81818823A1F0F401EC56FF4FFC
:1007B0006080F401E056FF4F7080F401EE54FF4F6B
:1007C000A0808FEF59DC862D57DC872D55DC8A2DD4
:1007D00007C08FEF51DC80E04FDC80E04DDC80E033
:1007E0004BDCFFEF8F1A9F0A88E088169104B9F658
:1007F0008FEF42DC8FEF40DC8FEF3EDC8FEF3CDC95
:100800000F5F51CE80E0DF91CF911F910F91FF904C
:10081000EF90DF90CF90BF90AF909F908F907F90A0
:100820006F90089516DE6CE88091BA001BCEFADF57
:100830006CE880E017CE0DDE6CE88091BA0012DE25
:10084000E9EAF0E010861782128211826CE880914A
:10085000BA0008CECF93DF93D4E0C1E0FADDC093B5
:10086000B100C093B000C093AB00C093AA006FE08A
:100870008091BA00F7DDE5DDC093B100C093B00010
:10088000C093AB00C093AA006FE08091BA00EADD8C
:10089000D15021F7C4E0DDDD1092B1001092B0001C
:1008A0001092AB001092AA006FE08091BA00DADDDE
:1008B000C8DD1092B1001092B0001092AB001092FF
:1008C000AA006FE08091BA00CDDDC15021F7DF9121
:1008D000CF91089580918A0090918B0048E050E07C
:1008E000481B590B9C012F5F3F4F81E090E061E076
:1008F000FC01E755FF4F8130910541F084179507C2
:1009000029F08217930711F0883011F4608301C039
:10091000108201968930910559F76CE38091BA00F5
:10092000A1DD80918A0090918B000196893091051C
:1009300028F490938B0080938A00089510928B0086
:1009400010928A000895409160005091610081E00A
:1009500090E031E0FC01E755FF4F8417950721F047
:10096000813011F0883011F4308301C0108201967B
:100970008930910579F76CE38091BA0073DD20919D
:100980008800309189008091600090916100232B54
:1009900071F401969093610080936000089791F440
:1009A00081E090E0909389008093880008950197FA
:1009B0009093610080936000019721F41092890068
:1009C000109288000895409186005091870029E098
:1009D00030E0241B350B81E090E061E0FC01E7553D
:1009E000FF4F4817590718F48217930728F08130F2
:1009F000910511F0883011F4608301C010820196D6
:100A00008930910559F76CE38091BA002BDD809114
:100A100086009091870001968530910528F4909387
:100A200087008093860008951092870010928600B8
:100A30000895823049F018F4813041F4F3CE8330C8
:100A400021F0843019F406CFF2CEF5CE863029F0AD
:100A5000873021F0853019F43DCF75CFB4CF08959C
:100A600036DB26DB1092BD001092A80000DBF89464
:100A70008EE790E09093BC008093BB0086E790E007
:100A800090939300809392008EE690E090939F0065
:100A900080939E00C0E1D0E210929100F894809182
:100AA0009D00811113C061E0DDDC17BAC8BB85B7BA
:100AB000877E806185BF85B7806285BFDBBFC5BB90
:100AC0007894889585B78F7D85BF09C08091BD00DA
:100AD000811104C080919C00ACDF01C0B1DB90911A
:100AE000A8009130C9F68091BA008F5F8093BA0058
:100AF000873090F29093BA00CFCFE199FECF1FBA22
:100B00008EBBE09A99278DB30895262FE199FECFE9
:100B10001CBA1FBA8EBB2DBB0FB6F894E29AE19AAD
:0A0B20000FBE01960895F894FFCF70
:100B2A000100FF00000000FFFF0000FF00000000BE
:100B3A000000646464640000646464000064006427
:060B4A0064000000646479
:00000001FF
